:020000040800F2
:1000000000000320D9A700082DA100083BA100088B
:1000100041A1000847A100084DA100080000000010
:10002000000000000000000000000000D1570008A0
:1000300053A1000800000000115A0008795A000876
:1000400029A8000861A1000829A8000829A800081B
:1000500029A8000829A8000829A8000829A800083C
:1000600029A8000829A8000829A8000829A800082C
:1000700029A8000829A8000829A8000829A800081C
:1000800029A8000829A8000829A8000829A800080C
:1000900029A8000829A8000829A8000829A80008FC
:1000A00029A8000829A8000829A8000829A80008EC
:1000B00029A8000829A8000829A8000829A80008DC
:1000C00029A8000829A8000829A8000829A80008CC
:1000D00029A8000829A8000829A8000829A80008BC
:1000E00029A8000829A8000829A8000829A80008AC
:1000F00029A8000829A8000829A8000829A800089C
:1001000029A8000829A8000829A8000829A800088B
:1001100029A8000829A800086DA1000829A800083E
:1001200029A8000829A8000829A8000829A800086B
:1001300029A8000829A8000829A8000829A800085B
:1001400029A8000829A8000829A8000829A800084B
:1001500029A8000829A8000829A8000829A800083B
:1001600029A8000829A8000829A8000829A800082B
:1001700029A8000829A8000829A8000800000000F4
:1001800029A8000829A8000829A8000829A800080B
:1001900029A8000829A8000829A8000829A80008FB
:0C01A00029A8000829A8000829A80008C8
:1001B00010B5054C237833B9044B13B10448AFF3A1
:1001C00000800123237010BD9C000020000000006F
:1001D00050A9000808B5034B1BB103490348AFF30E
:1001E000008008BD00000000A000002050A9000809
:1001F00081F0004102E000BF83F0004330B54FEAD8
:1002000041044FEA430594EA050F08BF90EA020F44
:100210001FBF54EA000C55EA020C7FEA645C7FEAD7
:10022000655C00F0E2804FEA5454D4EB5555B8BFFA
:100230006D420CDD2C4480EA020281EA030382EA6B
:10024000000083EA010180EA020281EA0303362DFD
:1002500088BF30BD11F0004F4FEA01314FF4801CD0
:100260004CEA113102D0404261EB410113F0004FE2
:100270004FEA03334CEA133302D0524263EB430399
:1002800094EA050F00F0A780A4F10104D5F1200E37
:100290000DDB02FA0EFC22FA05F2801841F1000192
:1002A00003FA0EF2801843FA05F359410EE0A5F166
:1002B00020050EF1200E012A03FA0EFC28BF4CF097
:1002C000020C43FA05F3C01851EBE37101F000454D
:1002D00007D54FF0000EDCF1000C7EEB00006EEB5A
:1002E0000101B1F5801F1BD3B1F5001F0CD34908E4
:1002F0005FEA30004FEA3C0C04F101044FEA44523B
:1003000012F5800F80F09A80BCF1004F08BF5FEAC1
:10031000500C50F1000041EB045141EA050130BDA1
:100320005FEA4C0C404141EB010111F4801FA4F144
:100330000104E9D191F0000F04BF01460020B1FA99
:1003400081F308BF2033A3F10B03B3F120020CDAD1
:100350000C3208DD02F1140CC2F10C0201FA0CF0AF
:1003600021FA02F10CE002F11402D8BFC2F1200C14
:1003700001FA02F120FA0CFCDCBF41EA0C019040CA
:10038000E41AA2BF01EB0451294330BD6FEA040413
:100390001F3C1CDA0C340EDC04F11404C4F12002FE
:1003A00020FA04F001FA02F340EA030021FA04F310
:1003B00045EA030130BDC4F10C04C4F1200220FA67
:1003C00002F001FA04F340EA0300294630BD21FAA5
:1003D00004F0294630BD94F0000F83F4801306BF6B
:1003E00081F480110134013D4EE77FEA645C18BF5F
:1003F0007FEA655C29D094EA050F08BF90EA020FF6
:1004000005D054EA000C04BF1946104630BD91EAED
:10041000030F1EBF0021002030BD5FEA545C05D1F0
:100420004000494128BF41F0004130BD14F580042F
:100430003CBF01F5801130BD01F0004545F0FE41A3
:1004400041F470014FF0000030BD7FEA645C1ABFD8
:10045000194610467FEA655C1CBF0B46024650EA0F
:10046000013406BF52EA033591EA030F41F400213B
:1004700030BD00BF90F0000F04BF0021704730B5C1
:100480004FF4806404F132044FF000054FF0000196
:1004900050E700BF90F0000F04BF0021704730B557
:1004A0004FF4806404F1320410F0004548BF40422C
:1004B0004FF000013EE700BF42004FEAE2014FEA81
:1004C00031014FEA02701FBF12F07F4393F07F4F5C
:1004D00081F06051704792F0000F14BF93F07F4F8E
:1004E000704730B54FF4607401F0004521F00041D1
:1004F00020E700BF50EA010208BF704730B54FF057
:1005000000050AE050EA010208BF704730B511F05B
:10051000004502D5404261EB41014FF4806404F193
:1005200032045FEA915C3FF4DCAE4FF003025FEA15
:10053000DC0C18BF03325FEADC0C18BF033202EB9D
:10054000DC02C2F1200300FA03FC20FA02F001FAF7
:1005500003FE40EA0E0021FA02F11444C1E600BF96
:1005600070B54FF0FF0C4CF4E06C1CEA11541DBF49
:100570001CEA135594EA0C0F95EA0C0F00F0DEF814
:100580002C4481EA030621EA4C5123EA4C5350EAF9
:10059000013518BF52EA033541F4801143F480134A
:1005A00038D0A0FB02CE4FF00005E1FB02E506F0DB
:1005B0000042E0FB03E54FF00006E1FB03569CF030
:1005C000000F18BF4EF0010EA4F1FF04B6F5007F36
:1005D00064F5407404D25FEA4E0E6D4146EB0606A8
:1005E00042EAC62141EA55514FEAC52040EA5E5031
:1005F0004FEACE2EB4F1FD0C88BFBCF5E06F1ED8DB
:10060000BEF1004F08BF5FEA500E50F1000041EB11
:10061000045170BD06F0004646EA010140EA0200BE
:1006200081EA0301B4EB5C04C2BFD4EB0C0541EAE0
:10063000045170BD41F480114FF0000E013C00F3F5
:10064000AB8014F1360FDEBF002001F0004170BD19
:10065000C4F10004203C35DA0C341BDC04F1140432
:10066000C4F1200500FA05F320FA04F001FA05F2BE
:1006700040EA020001F0004221F0004110EBD3708B
:1006800021FA04F642EB06015EEA430E08BF20EAB7
:10069000D37070BDC4F10C04C4F1200500FA04F35A
:1006A00020FA05F001FA04F240EA020001F00041EC
:1006B00010EBD37041F100015EEA430E08BF20EA5F
:1006C000D37070BDC4F1200500FA05F24EEA020EA7
:1006D00020FA04F301FA05F243EA020321FA04F0D6
:1006E00001F0004121FA04F220EA020000EBD3708D
:1006F0005EEA430E08BF20EAD37070BD94F0000F8D
:100700000FD101F00046400041EB010111F4801FC0
:1007100008BF013CF7D041EA060195F0000F18BF71
:10072000704703F00046520043EB030313F4801FAD
:1007300008BF013DF7D043EA0603704794EA0C0F67
:100740000CEA135518BF95EA0C0F0CD050EA41067D
:1007500018BF52EA4306D1D181EA030101F00041FA
:100760004FF0000070BD50EA410606BF1046194622
:1007700052EA430619D094EA0C0F02D150EA01362E
:1007800013D195EA0C0F05D152EA03361CBF10466F
:1007900019460AD181EA030101F0004141F0FE410E
:1007A00041F470014FF0000070BD41F0FE4141F492
:1007B000780170BD70B54FF0FF0C4CF4E06C1CEA92
:1007C00011541DBF1CEA135594EA0C0F95EA0C0F47
:1007D00000F0A7F8A4EB050481EA030E52EA033502
:1007E0004FEA013100F088804FEA03334FF0805523
:1007F00045EA131343EA12634FEA022245EA111550
:1008000045EA10654FEA00260EF000419D4208BF00
:10081000964244F1FD0404F5407402D25B084FEAAD
:100820003202B61A65EB03055B084FEA32024FF459
:1008300080104FF4002CB6EB020E75EB030E22BFB6
:10084000B61A754640EA0C005B084FEA3202B6EB76
:10085000020E75EB030E22BFB61A754640EA5C0025
:100860005B084FEA3202B6EB020E75EB030E22BFB5
:10087000B61A754640EA9C005B084FEA3202B6EBB6
:10088000020E75EB030E22BFB61A754640EADC0075
:1008900055EA060E18D04FEA051545EA16754FEAD7
:1008A00006164FEAC30343EA52734FEAC2025FEAF5
:1008B0001C1CC0D111F4801F0BD141EA00014FF084
:1008C00000004FF0004CB6E711F4801F04BF014355
:1008D0000020B4F1FD0C88BFBCF5E06F3FF6AFAE71
:1008E000B5EB030C04BFB6EB020C5FEA500C50F101
:1008F000000041EB045170BD0EF0004E4EEA113184
:1009000014EB5C04C2BFD4EB0C0541EA045170BD8A
:1009100041F480114FF0000E013C90E645EA060ECE
:100920008DE60CEA135594EA0C0F08BF95EA0C0FFC
:100930003FF43BAF94EA0C0F0AD150EA01347FF444
:1009400034AF95EA0C0F7FF425AF104619462CE71B
:1009500095EA0C0F06D152EA03353FF4FDAE10467E
:10096000194622E750EA410618BF52EA43067FF4CF
:10097000C5AE50EA41047FF40DAF52EA43057FF45F
:10098000EBAE12E74A0011D212F5001211D20DD5CA
:100990006FF47873B3EB62520ED44FEAC12343F085
:1009A000004343EA505323FA02F070474FF000002F
:1009B000704750EA013002D14FF0FF3070474FF0DE
:1009C000000070474FEA4102B2F1E04324BFB3F5A3
:1009D000001CDCF1FE5C0DD901F0004C4FEAC002B6
:1009E0004CEA5070B2F1004F40EB830008BF20F09A
:1009F0000100704711F0804F21D113F13872BCBF54
:100A000001F00040704741F480114FEA5252C2F1A8
:100A10001802C2F1200C10FA0CF320FA02F018BFF1
:100A200040F001004FEAC1234FEAD32303FA0CFC44
:100A300040EA0C0023FA02F34FEA4303CCE77FEAD3
:100A4000625307D150EA01331EBF4FF0FE4040F41D
:100A50004000704701F0004040F0FE4040F40000CC
:100A6000704700BF53B94AB9002908BF00281CBF0E
:100A70004FF0FF314FF0FF3000F07AB9ADF1080CC4
:100A80006DE904CE00F006F8DDF804E0DDE90223AC
:100A900004B070472DE9F0478C460D460446089E89
:100AA000002B51D18A4217466DD9B2FA82FEBEF1AF
:100AB000000F0BD0CEF1200C01FA0EF520FA0CFC41
:100AC00002FA0EF74CEA050C00FA0EF44FEA174A48
:100AD000250CBCFBFAF81FFA87F90AFB18CC45EA8B
:100AE0000C4508FB09F3AB420AD9ED1908F1FF32B6
:100AF00080F02381AB4240F22081A8F102083D44FE
:100B0000ED1AA4B2B5FBFAF00AFB105544EA05440D
:100B100000FB09F9A14509D9E41900F1FF3380F080
:100B20000A81A14540F2078102383C44A4EB090444
:100B300040EA08400021002E61D024FA0EF4002380
:100B400034607360BDE8F0878B4207D9002E54D023
:100B5000002186E821000846BDE8F087B3FA83F15A
:100B6000002940F08E80AB4202D3824200F2FA802C
:100B7000841A65EB03050120AC46002E3FD086E8C1
:100B80001010BDE8F08712B90127B7FBF2F7B7FAEA
:100B900087FEBEF1000F34D1EB1B3A0C1FFA87FC25
:100BA0000121B3FBF2F8250C02FB183345EA03459B
:100BB0000CFB08F3AB4207D9ED1908F1FF3002D264
:100BC000AB4200F2D1808046ED1AA3B2B5FBF2F041
:100BD00002FB105543EA05440CFB00FCA44507D971
:100BE000E41900F1FF3302D2A44500F2B8801846A0
:100BF000A4EB0C0440EA08409DE731463046BDE8CE
:100C0000F087CEF1200405FA0EF307FA0EF720FA6A
:100C100004F83A0C25FA04F448EA0308B4FBF2F1AC
:100C20004FEA184502FB11441FFA87FC45EA0445C8
:100C300001FB0CF3AB4200FA0EF409D9ED1901F1F6
:100C4000FF3080F08A80AB4240F2878002393D4419
:100C5000EB1A1FFA88F5B3FBF2F002FB103345EAFA
:100C6000034500FB0CF3AB4207D9ED1900F1FF3847
:100C70006FD2AB426DD902383D44EB1A40EA0141D4
:100C80008FE7C1F1200722FA07F88B4005FA01F43B
:100C900048EA030320FA07FE4FEA134CFD404EEAF0
:100CA000040EB5FBFCF94FEA1E440CFB19551FFA64
:100CB00083F844EA054509FB08F4AC4202FA01F264
:100CC00000FA01FA08D9ED1809F1FF3043D2AC421D
:100CD00041D9A9F102091D442D1B1FFA8EFEB5FB57
:100CE000FCF00CFB10554EEA054400FB08F8A0454B
:100CF00007D9E41800F1FF3529D2A04527D90238D9
:100D00001C4440EA0940A4EB0804A0FB02894C45BE
:100D1000C6464D4615D312D056B1BAEB0E0364EB5E
:100D2000050404FA07F7CB401F43CC4037607460DA
:100D30000021BDE8F0871846F8E69046E0E6C24597
:100D4000EAD2B8EB020E69EB03050138E4E7284666
:100D5000D7E7404691E78146BEE7014678E702388B
:100D60003C4445E7084608E7A8F102083D442BE764
:100D7000704700BF80B500AF0E4A0E4B1B6843F4AE
:100D8000007313600B4A0B4B1B6843F480631360C2
:100D9000084A084B1B6843F480731360032000F07B
:100DA000F8F8002009F068F909F032F90023184634
:100DB00080BD00BF003C024080B400AF064B1B78F2
:100DC0001A46064B1B681344044A136000BFBD4615
:100DD0005DF8047B704700BF00000020043F002046
:100DE00080B400AF034B1B681846BD465DF8047B1A
:100DF000704700BF043F002080B584B000AF78602A
:100E0000FFF7EEFFB8607B68FB60FB68B3F1FF3F64
:100E100005D0094B1B781A46FB681344FB6000BFE2
:100E2000FFF7DEFF0246BB68D21AFB689A42F7D38F
:100E300000BF1037BD4680BD0000002080B485B0E3
:100E400000AF78607B6803F00703FB600C4BDB6846
:100E5000BB60BA684FF6FF031340BB60FB681A0221
:100E6000BB68134343F0BF6343F40033BB60044AE1
:100E7000BB68D36000BF1437BD465DF8047B704784
:100E800000ED00E080B400AF044BDB681B0A03F008
:100E900007031846BD465DF8047B704700ED00E08F
:100EA00080B483B000AF0346FB7197F90730002B85
:100EB0000BDB094997F907305B09FA7902F01F0249
:100EC000012000FA02F241F8232000BF0C37BD4692
:100ED0005DF8047B704700BF00E100E080B483B0A0
:100EE00000AF03463960FB7197F90730002B0ADB2E
:100EF0000D4997F907303A68D2B21201D2B20B44C9
:100F000083F800230AE00949FB7903F00F03043B4F
:100F10003A68D2B21201D2B20B441A7600BF0C3733
:100F2000BD465DF8047B704700E100E000ED00E0A5
:100F300080B489B000AFF860B9607A60FB6803F0F4
:100F40000703FB61FB69C3F10703042B28BF0423DC
:100F5000BB61FB690433062B02D9FB69033B00E04C
:100F600000237B610122BB6902FA03F35A1EBB68AE
:100F70001A407B699A4001217B6901FA03F3591EEB
:100F80007B680B40134318462437BD465DF8047B4D
:100F9000704780B582B000AF78607868FFF74EFF89
:100FA00000BF0837BD4680BD80B586B000AF0346A0
:100FB000B9607A60FB7300237B61FFF763FF7861A0
:100FC0007A68B9687869FFF7B3FF024697F90F307E
:100FD00011461846FFF782FF00BF1837BD4680BD97
:100FE00080B582B000AF0346FB7197F90730184611
:100FF000FFF756FF00BF0837BD4680BD80B582B001
:1010000000AF78607B68002B01D101233BE07B6857
:1010100093F83930DBB2002B06D17B68002283F8CD
:101020003820786805F0EEFB7B68022283F83920CF
:101030007B681B687A681268126822F440317A680B
:1010400052680A431A607B681B687A681268526BA0
:1010500022F007017A6892680A435A637B681A682B
:101060007B681B681B6C23F47F5323F03F03796874
:10107000C9680B4313647B680022DA637B68012232
:1010800083F83920002318460837BD4680BD80B557
:1010900086B002AFF860B9607A603B60FB6893F895
:1010A0003830012B01D1022318E0FB68012283F8BC
:1010B0003820FB68022283F83920BB6900933B6823
:1010C0007A68B968F86800F087F9FB681B68FA6805
:1010D0001268126842F001021A60002318461037A5
:1010E000BD4680BD80B586B000AF78603960002312
:1010F000FB607B681B681B6803F00103002B56D064
:10110000FFF76EFE78614BE07B681B685B68FB60F5
:10111000FB6803F02103002B23D0FB6803F02003BE
:10112000002B05D07B68DB6B43F002027B68DA633F
:10113000FB6803F00103002B05D07B68DB6B43F0F9
:1011400001027B68DA637B681B6821229A607B68F6
:10115000042283F839207B68002283F83820012399
:10116000A5E03B68B3F1FF3F1AD0FFF739FE024616
:101170007B69D21A3B689A4202D83B68002B0FD198
:101180007B68DB6B43F020027B68DA637B680322B9
:1011900083F839207B68002283F83820032386E017
:1011A0007B681B685B6803F00203002BACD07B6894
:1011B0001B68DB6903F020033B617B681B685B6A8B
:1011C00003F020033A6913433B613B69002B61D074
:1011D000FFF706FE786156E07B681B685B68FB6082
:1011E000FB6803F02903002B2ED0FB6803F00803F3
:1011F000002B05D07B68DB6B43F004027B68DA636D
:10120000FB6803F02003002B05D07B68DB6B43F009
:1012100002027B68DA63FB6803F00103002B05D050
:101220007B68DB6B43F001027B68DA637B681B68D9
:1012300029229A607B68042283F839207B68002287
:1012400083F83820012332E03B68B3F1FF3F1AD026
:10125000FFF7C6FD02467B69D21A3B689A4202D864
:101260003B68002B0FD17B68DB6B43F020027B686F
:10127000DA637B68032283F839207B68002283F8D5
:101280003820032313E07B681B685B6803F01003BE
:10129000002BA1D07B681B6812229A607B68012218
:1012A00083F839207B68002283F838200023184611
:1012B0001837BD4680BD000080B487B000AF7860AD
:1012C00039607B685B68B3F5403F7B6893F83830E2
:1012D000012B01D1022377E07B68012283F83820BB
:1012E0007B68022283F839203B681B0118337A6837
:1012F00013443B613B695A683B699B681B04134379
:101300007B61344BFB603B695B680A2B03D03B6914
:101310005B68092B07D13B69DB6803F07F437A697F
:1013200013437B6105E03B69DB681B067A69134365
:101330007B613B68002B1FD17B681B687A68126851
:10134000516AFA68D24311407A690A435A627B684B
:101350001B683A6912689A613B695B680A2B03D083
:101360003B695B68092B26D17B681B683A69D268A8
:1013700022F07F429A621EE07B681B687A681268DE
:10138000D169FA68D24311407A690A43DA617B680D
:101390001B683A6912681A613B695B680A2B03D0C3
:1013A0003B695B68092B06D17B681B683A69D26888
:1013B00022F07F421A627B68012283F839207B6821
:1013C000002283F83820002318461C37BD465DF8FC
:1013D000047B70470F0003FF80B48BB000AFF86050
:1013E000B9607A603B60FB681B68FA681268526CEF
:1013F00002F040413A6810043A6B02430A435A64CF
:10140000FB681B687A68DA63FB685B68B3F5403F8A
:1014100074D1BB6803F07F433B62BB6803F47F0376
:10142000FB61BB6803F47F43BB61BB68DBB27B61DC
:10143000FB689B68002B08D1BA69FB691A433B6AB9
:101440001A437B6913437B6253E0FB689B68012B63
:1014500006D1BA69FB691A437B6913437B6248E092
:10146000FB689B68022B11D1FB69DB0CFB61BB693C
:101470009B0ABB617B69DB087B61BB695A01FB6925
:10148000DB021A437B6913437B6232E0FB689B6893
:10149000032B17D13B6ADB0F3B62FB69DB0CFB6163
:1014A000BB69DB0ABB617B69DB087B61BB695A01F5
:1014B000FB699B021A433B6ADB031A437B691343B4
:1014C0007B6216E03B6A1B0F3B62FB691B0DFB61F5
:1014D000BB691B0BBB617B691B097B61BB691A0183
:1014E000FB691B021A433B6A1B031A437B691343C4
:1014F0007B62FB681B687A6A9A6303E0FB681B687F
:10150000BA68DA6000BF2C37BD465DF8047B7047CF
:1015100080B489B000AF7860396000237B6100231C
:101520003B610023BB610023FB6177E10122FB6982
:1015300002FA03F37B613B681A687B6913403B61E5
:101540003A697B699A4240F066813B685B68022B8E
:1015500003D03B685B68122B23D1FB69DA087B68F8
:10156000083253F82230BB61FB6903F007039B008C
:101570000F2202FA03F3DB43BA691340BB613B68F5
:101580001A69FB6903F007039B0002FA03F3BA69C7
:101590001343BB61FB69DA087B680832B96943F819
:1015A00022107B681B68BB61FB695B00032202FAA7
:1015B00003F3DB43BA691340BB613B685B6803F02C
:1015C0000302FB695B0002FA03F3BA691343BB61D0
:1015D0007B68BA691A603B685B68012B0BD03B687B
:1015E0005B68022B07D03B685B68112B03D03B681C
:1015F0005B68122B30D17B689B68BB61FB695B0029
:10160000032202FA03F3DB43BA691340BB613B6870
:10161000DA68FB695B0002FA03F3BA691343BB6142
:101620007B68BA699A607B685B68BB610122FB6971
:1016300002FA03F3DB43BA691340BB613B685B68A2
:101640001B0903F00102FB6902FA03F3BA691343B1
:10165000BB617B68BA695A607B68DB68BB61FB6908
:101660005B00032202FA03F3DB43BA691340BB6158
:101670003B689A68FB695B0002FA03F3BA6913439B
:10168000BB617B68BA69DA603B685B6803F08053D2
:10169000002B00F0C0800023FB60654A644B5B6C4C
:1016A00043F480435364624B5B6C03F48043FB6000
:1016B000FB68604AFB699B08023352F82330BB6128
:1016C000FB6903F003039B000F2202FA03F3DB43E1
:1016D000BA691340BB617B68574A934237D07B6835
:1016E000564A934231D07B68554A93422BD07B684F
:1016F000544A934225D07B68534A93421FD07B685B
:10170000524A934219D07B68514A934213D07B6866
:10171000504A93420DD07B684F4A934207D07B6872
:101720004E4A934201D1092312E00A2310E0082314
:101730000EE007230CE006230AE0052308E004235B
:1017400006E0032304E0022302E0012300E000237B
:10175000FA6902F0030292009340BA691343BB6135
:101760003449FB699B080233BA6941F823203C4B9A
:101770001B68BB613B69DB43BA691340BB613B68D3
:101780005B6803F48033002B03D0BA693B691343D1
:10179000BB61334ABB691360314B5B68BB613B691A
:1017A000DB43BA691340BB613B685B6803F40033F9
:1017B000002B03D0BA693B691343BB61284ABB695C
:1017C0005360274B9B68BB613B69DB43BA6913409D
:1017D000BB613B685B6803F48013002B03D0BA69DC
:1017E0003B691343BB611E4ABB6993601C4BDB68BA
:1017F000BB613B69DB43BA691340BB613B685B6813
:1018000003F40013002B03D0BA693B691343BB6197
:10181000134ABB69D360FB690133FB61FB690F2B82
:101820007FF684AE00BF2437BD465DF8047B704769
:10183000003802400038014000000240000402402D
:1018400000080240000C0240001002400014024058
:1018500000180240001C0240002002400024024008
:10186000003C014080B487B000AF7860396000234D
:101870003B610023FB600023BB6000237B61DAE057
:1018800001227B6902FA03F33B613A683B6913402A
:10189000FB60FA683B699A4240F0CA806B4A7B69F8
:1018A0009B08023352F82330BB607B6903F00303CB
:1018B0009B000F2202FA03F3BA681340BB607B68F7
:1018C000634A934237D07B68624A934231D07B6847
:1018D000614A93422BD07B68604A934225D07B6853
:1018E0005F4A93421FD07B685E4A934219D07B685F
:1018F0005D4A934213D07B685C4A93420DD07B686B
:101900005B4A934207D07B685A4A934201D109232C
:1019100012E00A2310E008230EE007230CE0062360
:101920000AE0052308E0042306E0032304E0022381
:1019300002E0012300E000237A6902F00302920032
:1019400003FA02F2BB689A4232D17B6903F00303C7
:101950009B000F2202FA03F3BB603C487B699B08A3
:101960003A497A699208023251F82210BA68D24391
:101970000A40023340F823203F493F4B1A68FB6876
:10198000DB4313400B603C493B4B5A68FB68DB432D
:1019900013404B603849384B9A68FB68DB4313406F
:1019A0008B603549344BDA68FB68DB431340CB600E
:1019B0007B681A687B695B00032101FA03F3DB4350
:1019C0001A407B681A607B69DA087B69D9087B68F2
:1019D000083153F821107B6903F007039B000F20A7
:1019E00000FA03F3DB4319407B68083243F8221006
:1019F0007B689A687B695B00032101FA03F3DB4390
:101A00001A407B689A607B685A6801217B6901FAF9
:101A100003F3DB431A407B685A607B68DA687B69B2
:101A20005B00032101FA03F3DB431A407B68DA60B1
:101A30007B6901337B617B690F2B7FF621AF00BF90
:101A40001C37BD465DF8047B704700BF003801407D
:101A5000000002400004024000080240000C024066
:101A6000001002400014024000180240001C024016
:101A70000020024000240240003C014080B483B0BA
:101A800000AF78600B467B8013467B707B78002B21
:101A900003D07A887B689A6103E07B881A047B68AC
:101AA0009A6100BF0C37BD465DF8047B704780B477
:101AB00083B000AF78600B467B807B685A697B8877
:101AC0001A407B889A4204D17B881A047B689A6109
:101AD00002E07A887B689A6100BF0C37BD465DF8EA
:101AE000047B704790B585B000AF78607B68002BB1
:101AF00001D101230FE17B6893F83D30DBB2002B6D
:101B000006D17B68002283F83C20786805F0A4FCAD
:101B10007B68242283F83D207B681B687A68126802
:101B2000126822F001021A6001F05EFFF8607B6823
:101B30005B687B4A934207D8FB687A4A934294BF1A
:101B400001230023DBB206E0FB68774A934294BF8F
:101B500001230023DBB2002B01D00123DBE0FB6873
:101B6000724AA2FB03239B0CBB607B681B687A68EC
:101B70001268526822F03F01BA680A435A607B68D3
:101B80001A687B681B681B6A23F03F017B685B68EF
:101B90006348834202D8BB68013309E0BB684FF455
:101BA000967000FB03F36248A0FB03039B0901331B
:101BB0000B4313627B6818687B681B68DB6923F43E
:101BC0004F4222F0FF027B685B6855498B420DD87B
:101BD000FB68591E7B685B685B00B1FBF3F3013364
:101BE000C3F30B03042B38BF04234FE07B689B68CF
:101BF000002B11D1FB685C1E7B6859680B465B00AB
:101C00000B44B4FBF3F30133C3F30B03002B0CBF02
:101C100001230023DBB212E0FB685C1E7B6859687D
:101C20000B469B000B4499000B44B4FBF3F30133C8
:101C3000C3F30B03002B0CBF01230023DBB2002BEB
:101C400001D0012322E07B689B68002B0ED1FB684A
:101C50005C1E7B6859680B465B000B44B4FBF3F3D6
:101C60000133C3F30B0343F400430FE0FB685C1E36
:101C70007B6859680B469B000B4499000B44B4FBEE
:101C8000F3F30133C3F30B0343F440431343C36142
:101C90007B681B687A681268126822F0C0017A6853
:101CA000D0697A68126A02430A431A607B681A682C
:101CB0007B681B689B6823F4034323F0FF03796868
:101CC00008697968C96801430B4393607B681B68A6
:101CD0007A681268D26822F0FF017A6850697A68DF
:101CE000926902430A43DA607B681B687A6812686B
:101CF000126842F001021A607B6800221A647B6855
:101D0000202283F83D207B6800221A637B68002232
:101D100083F83E20002318461437BD4690BD00BF0F
:101D2000A08601007F841E00FF083D0083DE1B4368
:101D3000D34D621080B582B000AF78607B68002B15
:101D400001D1012321E07B68242283F83D207B68B8
:101D50001B687A681268126822F001021A607868BB
:101D600005F0E4FB7B6800221A647B68002283F89C
:101D70003D207B6800221A637B68002283F83E20A6
:101D80007B68002283F83C20002318460837BD46B4
:101D900080BD000080B588B002AFF86008461146EB
:101DA0001A4603467B810B463B811346FB80FFF7B7
:101DB00017F87861FB6893F83D30DBB2202B40F0D8
:101DC000D9807B690093192301226D49F86800F0DE
:101DD00067FC0346002B01D00223CCE0FB6893F89C
:101DE0003C30012B01D10223C5E0FB68012283F8BE
:101DF0003C20FB681B681B6803F00103012B07D024
:101E0000FB681B68FA681268126842F001021A60E7
:101E1000FB681B68FA681268126822F400621A6094
:101E2000FB68212283F83D20FB68402283F83E2096
:101E3000FB6800221A64FB683A6A5A62FB68BA8C33
:101E40005A85FB685B8D9AB2FB681A85FB684D4A20
:101E5000DA62F8883A8979897B690193BB6A0093D1
:101E60000346F86800F0C4FA0346002B52D0012361
:101E700081E07A69B96AF86800F0E8FC0346002B53
:101E80000DD0FB681B6C042B07D1FB681B68FA683C
:101E90001268126842F400721A6001236BE0FB685A
:101EA0001B68FA68526A12781A61FB685B6A5A1CEE
:101EB000FB685A62FB681B8D013B9AB2FB681A856E
:101EC000FB685B8D9BB2013B9AB2FB685A85FB684D
:101ED0001B685B6903F00403042B1BD1FB681B8D9B
:101EE000002B17D0FB681B68FA68526A12781A61D7
:101EF000FB685B6A5A1CFB685A62FB681B8D013BDE
:101F00009AB2FB681A85FB685B8D9BB2013B9AB263
:101F1000FB685A85FB681B8D002BAAD17A69B96AC8
:101F2000F86800F0D4FC0346002B0DD0FB681B6C56
:101F3000042B07D1FB681B68FA681268126842F428
:101F400000721A60012316E0FB681B68FA681268C9
:101F5000126842F400721A60FB68202283F83D2068
:101F6000FB68002283F83E20FB68002283F83C20B7
:101F7000002300E0022318461837BD4680BD00BF8D
:101F8000020010000000FFFF80B58CB002AFF860C7
:101F9000084611461A4603467B810B463B81134691
:101FA000FB80FEF71DFF7862FB6893F83D30DBB2E3
:101FB000202B40F008827B6A0093192301227B4981
:101FC000F86800F06DFB0346002B01D00223FBE113
:101FD000FB6893F83C30012B01D10223F4E1FB684C
:101FE000012283F83C20FB681B681B6803F0010397
:101FF000012B07D0FB681B68FA681268126842F070
:1020000001021A60FB681B68FA681268126822F401
:1020100000621A60FB68222283F83D20FB684022A0
:1020200083F83E20FB6800221A64FB683A6B5A6210
:10203000FB68BA8E5A85FB685B8D9AB2FB681A857D
:10204000FB685B4ADA62F8883A8979897B6A01938E
:10205000BB6B00930346F86800F052FA0346002B6E
:1020600001D00123B0E1FB681B8D002B13D10023AD
:102070003B62FB681B685B693B62FB681B689B6992
:102080003B623B6AFB681B68FA681268126842F49C
:1020900000721A6084E1FB681B8D012B1BD1FB6869
:1020A0001B68FA681268126822F480621A600023C2
:1020B000FB61FB681B685B69FB61FB681B689B69D4
:1020C000FB61FB69FB681B68FA681268126842F4DE
:1020D00000721A6064E1FB681B8D022B1BD1FB6848
:1020E0001B68FA681268126822F480621A60FB6842
:1020F0001B68FA681268126842F400621A600023D2
:10210000BB61FB681B685B69BB61FB681B689B6903
:10211000BB61BB6944E100237B61FB681B685B69B1
:102120007B61FB681B689B697B617B6938E1FB68AD
:102130001B8D032B00F2F180FB681B8D012B23D13B
:102140007A6AB96BF86800F003FC0346002B01D0F3
:10215000012339E1FB685B6AFA6812681269D2B23E
:102160001A70FB685B6A5A1CFB685A62FB681B8D1D
:10217000013B9AB2FB681A85FB685B8D9BB2013B01
:102180009AB2FB685A850BE1FB681B8D022B4ED17E
:102190007B6A0093BB6B00220649F86800F080FA66
:1021A0000346002B08D001230EE100BF02001000FF
:1021B0000000FFFF04000100FB681B68FA6812685A
:1021C000126842F400721A60FB685B6AFA6812686F
:1021D0001269D2B21A70FB685B6A5A1CFB685A62B9
:1021E000FB681B8D013B9AB2FB681A85FB685B8D0F
:1021F0009BB2013B9AB2FB685A85FB685B6AFA683E
:1022000012681269D2B21A70FB685B6A5A1CFB68CA
:102210005A62FB681B8D013B9AB2FB681A85FB680A
:102220005B8D9BB2013B9AB2FB685A85B8E07B6A32
:102230000093BB6B00226649F86800F031FA034650
:10224000002B01D00123BFE0FB681B68FA6812680D
:10225000126822F480621A60FB685B6AFA6812688E
:102260001269D2B21A70FB685B6A5A1CFB685A6228
:10227000FB681B8D013B9AB2FB681A85FB685B8D7E
:102280009BB2013B9AB2FB685A857B6A0093BB6B99
:1022900000224F49F86800F003FA0346002B01D0F2
:1022A000012391E0FB681B68FA681268126842F427
:1022B00000721A60FB685B6AFA6812681269D2B22F
:1022C0001A70FB685B6A5A1CFB685A62FB681B8DBC
:1022D000013B9AB2FB681A85FB685B8D9BB2013BA0
:1022E0009AB2FB685A85FB685B6AFA6812681269E1
:1022F000D2B21A70FB685B6A5A1CFB685A62FB68B0
:102300001B8D013B9AB2FB681A85FB685B8D9BB203
:10231000013B9AB2FB685A8542E07A6AB96BF86869
:1023200000F016FB0346002B01D001234CE0FB68B4
:102330005B6AFA6812681269D2B21A70FB685B6A4B
:102340005A1CFB685A62FB681B8D013B9AB2FB6802
:102350001A85FB685B8D9BB2013B9AB2FB685A857C
:10236000FB681B685B6903F00403042B18D1FB684E
:102370005B6AFA6812681269D2B21A70FB685B6A0B
:102380005A1CFB685A62FB681B8D013B9AB2FB68C2
:102390001A85FB685B8D9BB2013B9AB2FB685A853C
:1023A000FB681B8D002B7FF4C2AEFB68202283F8F4
:1023B0003D20FB68002283F83E20FB68002283F862
:1023C0003C20002300E0022318462837BD4680BD8C
:1023D0000400010080B483B000AF78607B6893F89C
:1023E0003D30DBB218460C37BD465DF8047B7047C4
:1023F00080B588B002AFF860084611461A46034619
:102400007B810B463B811346FB80FB681B68FA68A7
:102410001268126842F480721A607B6A00933B6A09
:1024200000224FF00111F86800F03AF90346002B42
:1024300001D001235EE0FB681B687A89D2B202F00A
:10244000FE021A617B6A3A6A2C49F86800F07FF94B
:102450000346002B01D001234CE000237B61FB6885
:102460001B685B697B61FB681B689B697B617B699F
:102470007A6A396AF86800F0E9F90346002B0DD052
:10248000FB681B6C042B07D1FB681B68FA68126899
:10249000126842F400721A6001232BE0FB88012BC2
:1024A00005D1FB681B683A89D2B21A6121E0FB684A
:1024B0001B683A89120A92B2D2B21A617A6A396AF0
:1024C000F86800F0C3F90346002B0DD0FB681B6CC5
:1024D000042B07D1FB681B68FA681268126842F483
:1024E00000721A60012305E0FB681B683A89D2B2CA
:1024F0001A61002318461837BD4680BD020001004E
:1025000080B588B002AFF860084611461A46034607
:102510007B810B463B811346FB80FB681B68FA6896
:102520001268126842F480621A60FB681B68FA68DD
:102530001268126842F480721A607B6A00933B6AE8
:1025400000224FF00111F86800F0AAF80346002BB2
:1025500001D001239DE0FB681B687A89D2B202F0AA
:10256000FE021A617B6A3A6A4C49F86800F0EFF89B
:102570000346002B01D001238BE000237B61FB6825
:102580001B685B697B61FB681B689B697B617B697E
:102590007A6A396AF86800F059F90346002B0DD0C1
:1025A000FB681B6C042B07D1FB681B68FA68126878
:1025B000126842F400721A6001236AE0FB88012B62
:1025C00005D1FB681B683A89D2B21A6121E0FB6829
:1025D0001B683A89120A92B2D2B21A617A6A396ACF
:1025E000F86800F033F90346002B0DD0FB681B6C34
:1025F000042B07D1FB681B68FA681268126842F462
:1026000000721A60012344E0FB681B683A89D2B269
:102610001A617A6A396AF86800F018F90346002BE3
:102620000DD0FB681B6C042B07D1FB681B68FA6894
:102630001268126842F400721A60012329E0FB68F4
:102640001B68FA681268126842F480721A607B6A2A
:1026500000933B6A00224FF00111F86800F020F867
:102660000346002B01D0012313E0FB681B687A8925
:10267000D2B242F00102D2B21A617B6A3A6A0749C9
:10268000F86800F064F80346002B01D0012300E055
:10269000002318461837BD4680BD00BF0200010068
:1026A00080B584B000AFF860B9603B601346FB7141
:1026B00025E03B68B3F1FF3F21D0FEF791FB0246D6
:1026C000BB69D21A3B689A4202D83B68002B16D1EC
:1026D000FB6800221A63FB68202283F83D20FB6818
:1026E000002283F83E20FB681B6C43F02002FB684D
:1026F0001A64FB68002283F83C20012323E0BB68B6
:102700001B0CDBB2012B0DD1FB681B685B69DA4344
:10271000BB6813409BB2002B0CBF01230023DBB22C
:102720001A460CE0FB681B689B69DA43BB681340E0
:102730009BB2002B0CBF01230023DBB21A46FB79AE
:102740009A42B6D0002318461037BD4680BD80B5EA
:1027500084B000AFF860B9607A603B6051E0FB681C
:102760001B685B6903F48063B3F5806F23D1FB685A
:102770001B68FA681268126842F400721A60FB68FB
:102780001B686FF480625A61FB6800221A63FB6861
:10279000202283F83D20FB68002283F83E20FB685E
:1027A0001B6C43F00402FB681A64FB68002283F888
:1027B0003C20012346E07B68B3F1FF3F21D0FEF7C8
:1027C0000FFB02463B68D21A7B689A4202D87B68AC
:1027D000002B16D1FB6800221A63FB68202283F8C5
:1027E0003D20FB68002283F83E20FB681B6C43F011
:1027F0002002FB681A64FB68002283F83C20012356
:1028000020E0BB681B0CDBB2012B0CD1FB681B6802
:102810005B69DA43BB6813409BB2002B14BF0123F2
:102820000023DBB20BE0FB681B689B69DA43BB68E3
:1028300013409BB2002B14BF01230023DBB2002BFB
:102840008DD1002318461037BD4680BD80B584B0B9
:1028500000AFF860B9607A602DE0F86800F0CEF85B
:102860000346002B01D001232DE0BB68B3F1FF3FED
:1028700021D0FEF7B5FA02467B68D21ABB689A42AD
:1028800002D8BB68002B16D1FB6800221A63FB68D4
:10289000202283F83D20FB68002283F83E20FB685D
:1028A0001B6C43F02002FB681A64FB68002283F86B
:1028B0003C20012307E0FB681B685B6903F0800391
:1028C000802BCAD1002318461037BD4680BD80B585
:1028D00084B000AFF860B9607A602DE0F86800F06D
:1028E0008DF80346002B01D001232DE0BB68B3F126
:1028F000FF3F21D0FEF774FA02467B68D21ABB680C
:102900009A4202D8BB68002B16D1FB6800221A63DA
:10291000FB68202283F83D20FB68002283F83E20DC
:10292000FB681B6C43F02002FB681A64FB68002202
:1029300083F83C20012307E0FB681B685B6903F018
:102940000403042BCAD1002318461037BD4680BDAE
:1029500080B584B000AFF860B9607A6042E0FB688F
:102960001B685B6903F01003102B19D1FB681B680F
:102970006FF010025A61FB6800221A63FB68202284
:1029800083F83D20FB68002283F83E20FB681A6C28
:10299000FB681A64FB68002283F83C20012329E0CD
:1029A000FEF71EFA02467B68D21ABB689A4202D82A
:1029B000BB68002B16D1FB6800221A63FB6820223B
:1029C00083F83D20FB68002283F83E20FB681B6CE7
:1029D00043F02002FB681A64FB68002283F83C2065
:1029E000012307E0FB681B685B6903F04003402B91
:1029F000B5D1002318461037BD4680BD80B483B0E2
:102A000000AF78607B681B685B6903F48063B3F593
:102A1000806F1BD17B681B686FF480625A617B6892
:102A200000221A637B68202283F83D207B68002205
:102A300083F83E207B681B6C43F004027B681A64B9
:102A40007B68002283F83C20012300E00023184625
:102A50000C37BD465DF8047B704780B483B000AF8F
:102A6000786039607B6893F83D30DBB2202B29D148
:102A70007B68242283F83D207B681B687A68126893
:102A8000126822F001021A607B681B687A6812687B
:102A9000526A22F010025A627B681B687A681268D8
:102AA000516A3A680A435A627B681B687A681268FE
:102AB000126842F001021A607B68202283F83D20F0
:102AC000002300E0022318460C37BD465DF8047B66
:102AD000704780B485B000AF786039600023FB8117
:102AE0007B6893F83D30DBB2202B2AD17B6824220F
:102AF00083F83D207B681B687A681268126822F0B0
:102B000001021A607B681B685B6AFB81FB8923F00A
:102B10000F03FB813B689AB2FB891343FB817B68FF
:102B20001B68FA895A627B681B687A6812681268A7
:102B300042F001021A607B68202283F83D200023C6
:102B400000E0022318461437BD465DF8047B704749
:102B500080B584B000AF78607B68002B01D1012381
:102B6000BFE07B6893F8A130DBB2002B06D17B6815
:102B7000002283F8A020786805F05AFC7B680222C6
:102B800083F8A1207B681B687A681268926922F03A
:102B900070429A617B681B687A68126891697A68EA
:102BA00050687A68926810437A68D26810437A68ED
:102BB000126902430A439A617B681A687B681B6842
:102BC00099684A4B0B4093607B685B691B04FB6010
:102BD0007B681B687A68126891687A689069FA68FD
:102BE00002430A439A607B681A687B681B68D9684D
:102BF0003E4B0B40D3607B68DB691B04FB607B684A
:102C00001B687A681268D1687A68106AFA680243A9
:102C10000A43DA607B681A687B681B681969334B62
:102C20000B4013617B685B6A1B04FB607B681B685D
:102C30007A68126811697A68906AFA6802430A43EE
:102C40001A617B681A687B681B685969274B0B40BF
:102C500053617B68DB6A1B04FB607B681B687A68D6
:102C6000126851697A68106BFA6802430A435A6124
:102C70007B6893F835301B02FB607B6893F8363035
:102C80001B04BB607B681B687A681268D26A02F01A
:102C90007F42DA627B681B687A681268D16AB8681A
:102CA000FA680243786890F8340002430A43DA6213
:102CB0007B681B687A681268526B42F006025A639E
:102CC0007B681B687A681268926942F001029A6117
:102CD0007B680022C3F8A4207B68012283F8A1202E
:102CE000002318461037BD4680BD00BF00F800F035
:102CF000B0B584B000AFF860B9607A60FB6893F853
:102D0000A030012B01D102232CE0FB68012283F8C3
:102D1000A020FB68022283F8A120FA687B68342196
:102D200001FB03F3134403F13802BB6814461D464C
:102D30000FCD0FC40FCD0FC40FCD0FC42B68236070
:102D40007A68B968F86800F03BF8FB681B680122F4
:102D50005A62FB68012283F8A120FB68002283F8F5
:102D6000A020002318461037BD46B0BD80B483B004
:102D700000AF78607B6893F8A030012B01D102236B
:102D800016E07B68012283F8A0207B68022283F88A
:102D9000A1200A4A094B9B6943F4803393617B6805
:102DA000012283F8A1207B68002283F8A020002361
:102DB00018460C37BD465DF8047B7047006801403B
:102DC00080B489B000AFF860B9607A60BB685A68B7
:102DD000FB681B68DB681B0CC3F30B0313441B0469
:102DE000FB61FB681B681A467B68DB011344843374
:102DF0001A46FB681B6819467B68DB010B44843369
:102E00005B6803F470435360FB681B681A467B6879
:102E1000DB01134484331946BB681A68FB681B68DE
:102E2000DB681B0CC3F30B0313445A1CFB691343ED
:102E30004B60BB68DA68FB681B68DB68C3F30A0396
:102E400013441B04FB61FB681B681A467B68DB01AB
:102E5000134484331A46FB681B6819467B68DB0100
:102E60000B4484339B6803F470439360FB681B68D6
:102E70001A467B68DB01134484331946BB689A68A1
:102E8000FB681B68DB68C3F30A0313445A1CFB6925
:102E900013438B60FB681B681A467B68DB01134495
:102EA00084331A46FB681B6819467B68DB010B44B8
:102EB00084331B6923F007031361FB681B681A4600
:102EC0007B68DB01134484331A46BB681B691361BA
:102ED000BB6893F831301B02FB61BB6893F832305A
:102EE0001B04BB61BB689B691B067B61FB681B689D
:102EF0001A467B68DB01134484339B69FB681B68BB
:102F00001A467B68DB01134484331A46002393611D
:102F1000FB681B681A467B68DB011344843319463F
:102F2000BB6893F830301A46FB691A43BB691A43F1
:102F30007B6913438B61FB681B681A467B68DB0166
:102F4000134484331A46FB681B6819467B68DB010F
:102F50000B4484335B6923F0FF035361FB681B68F8
:102F60001A467B68DB01134484331A46BB685B69ED
:102F70005361FB681B681A467B68DB01134484338A
:102F80001A46FB681B6819467B68DB010B448433D7
:102F9000DB6923F4E06323F00703D361FB681B685C
:102FA0001A467B68DB01134484331946BB68DA692F
:102FB000BB681B6A1343CB61FB681B681A467B68BE
:102FC000DB01134484339B6AFB681B681A467B68E9
:102FD000DB01134484331A4600239362FB681B68A9
:102FE0001A467B68DB01134484331A46BB685B6A6C
:102FF0009362BB681B69002B02D10423FB611BE0B9
:10300000BB681B69012B02D10323FB6114E0BB6881
:103010001B69042B0BD0BB681B69022B07D0BB6854
:103020001B69032B03D0BB681B69072B02D102234A
:10303000FB6101E00123FB61FB681B681A467B68AA
:10304000DB01134484331A46FB681B6819467B680E
:10305000DB010B448433DB6A03F0E023D362FB68BB
:103060001B681A467B68DB01134484331846BB682F
:103070009B6AFA6902FB03F31A04BB685968BB68D0
:103080001B68CB1AF96901FB03F303331343C362D3
:10309000FB681B681A467B68DB01134484331A46BD
:1030A000FB681B6819467B68DB010B4484331B6B90
:1030B00023F4FF6323F007031363FB681B681A46BE
:1030C0007B68DB01134484331A46BB68DB6A1363F5
:1030D000FB681B681A467B68DB01134484331A467D
:1030E000FB681B6819467B68DB010B4484331B6853
:1030F00043F00103136000BF2437BD465DF8047B35
:103100007047000080B500AF064B5B6903F4803365
:10311000002B05D000F008F8024B4FF480325A61C2
:1031200000BF80BD003C014080B400AF00BFBD4681
:103130005DF8047B7047000080B582B000AF0023CB
:103140007B6000233B60204A1F4B1B6C43F0805385
:1031500013641D4B1B6C03F080533B603B681B4B9F
:1031600001221A60FDF73CFE786009E0FDF738FEA9
:1031700002467B68D31AB3F57A7F01D903231FE097
:10318000134B5B6803F48033B3F5803FEED1114BF2
:1031900001221A60FDF724FE786009E0FDF720FEA9
:1031A00002467B68D31AB3F57A7F01D9032307E07F
:1031B000074B5B6803F40033B3F5003FEED1002307
:1031C00018460837BD4680BD0038024040000E4218
:1031D0000070004044000E4280B586B000AF7860B9
:1031E0007B68002B01D101232DE27B681B6803F073
:1031F0000103002B75D0A34B9B6803F00C03042B39
:103200000CD0A04B9B6803F00C03082B12D19D4BF4
:103210005B6803F48003B3F5800F0BD1994B1B68F7
:1032200003F40033002B5BD07B685B68002B57D125
:10323000012308E27B685B68B3F5803F06D1914AC1
:10324000904B1B6843F4803313601DE07B685B6820
:10325000B3F5A02F0CD18B4A8A4B1B6843F4802313
:103260001360884A874B1B6843F4803313600BE07C
:10327000844A844B1B6823F480331360814A814B5A
:103280001B6823F4802313607B685B68002B13D0DA
:10329000FDF7A6FD386108E0FDF7A2FD02463B6997
:1032A000D31A642B01D90323CDE1764B1B6803F4B9
:1032B0000033002BF0D014E0FDF792FD386108E0F8
:1032C000FDF78EFD02463B69D31A642B01D9032317
:1032D000B9E16C4B1B6803F40033002BF0D100E024
:1032E00000BF7B681B6803F00203002B63D0654BB3
:1032F0009B6803F00C03002B0BD0624B9B6803F020
:103300000C03082B1CD15F4B5B6803F48003002B7C
:1033100016D15C4B1B6803F00203002B05D07B68C1
:10332000DB68012B01D001238DE15649554B1B6809
:1033300023F0F8027B681B69DB0013430B603AE063
:103340007B68DB68002B20D04F4B01221A60FDF711
:1033500047FD386108E0FDF743FD02463B69D31A9B
:10336000022B01D903236EE1464B1B6803F00203D5
:10337000002BF0D04349434B1B6823F0F8027B68D5
:103380001B69DB0013430B6015E03F4B00221A6002
:10339000FDF726FD386108E0FDF722FD02463B6996
:1033A000D31A022B01D903234DE1364B1B6803F0DE
:1033B0000203002BF0D17B681B6803F00803002B8D
:1033C00030D07B685B69002B16D0304B01221A602D
:1033D000FDF706FD386108E0FDF702FD02463B6996
:1033E000D31A022B01D903232DE1264B5B6F03F087
:1033F0000203002BF0D015E0244B00221A60FDF7E9
:10340000EFFC386108E0FDF7EBFC02463B69D31A9C
:10341000022B01D9032316E11A4B5B6F03F0020361
:10342000002BF0D17B681B6803F00403002B00F035
:10343000A0800023FB75134B1B6C03F08053002B03
:103440000FD10023FB600F4A0E4B1B6C43F08053DF
:1034500013640C4B1B6C03F08053FB60FB6801236F
:10346000FB750B4B1B6803F48073002B21D1084ABA
:10347000074B1B6843F480731360FDF7B1FC3861A0
:1034800011E000BF0038024000004742800E474272
:1034900000700040FDF7A4FC02463B69D31A022BE2
:1034A00001D90323CFE06A4B1B6803F48073002B20
:1034B000F0D07B689B68012B06D1664A654B1B6F79
:1034C00043F0010313671CE07B689B68052B0CD15C
:1034D000604A604B1B6F43F0040313675D4A5D4B0A
:1034E0001B6F43F0010313670BE05A4A594B1B6FE4
:1034F00023F001031367574A564B1B6F23F0040355
:1035000013677B689B68002B15D0FDF769FC386159
:103510000AE0FDF765FC02463B69D31A41F28832A6
:10352000934201D903238EE04A4B1B6F03F0020341
:10353000002BEED014E0FDF753FC38610AE0FDF7F4
:103540004FFC02463B69D31A41F28832934201D9BB
:10355000032378E03F4B1B6F03F00203002BEED1F7
:10356000FB7D012B05D13B4A3A4B1B6C23F080536A
:1035700013647B689B69002B64D0364B9B6803F017
:103580000C03082B5CD07B689B69022B41D1324B2A
:1035900000221A60FDF724FC386108E0FDF720FCEA
:1035A00002463B69D31A022B01D903234BE0294B76
:1035B0001B6803F00073002BF0D126497B68DA69A1
:1035C0007B681B6A1A437B685B6A9B011A437B68B2
:1035D0009B6A5B08013B1B041A437B68DB6A1B0682
:1035E00013434B601C4B01221A60FDF7F9FB386155
:1035F00008E0FDF7F5FB02463B69D31A022B01D91F
:10360000032320E0134B1B6803F00073002BF0D062
:1036100018E0114B00221A60FDF7E2FB386108E068
:10362000FDF7DEFB02463B69D31A022B01D90323C7
:1036300009E0084B1B6803F00073002BF0D101E098
:10364000012300E0002318461837BD4680BD00BFA7
:1036500000700040003802406000474280B584B0EE
:1036600000AF786039607B68002B01D10123CAE08C
:10367000674B1B6803F00F023B689A420CD2644B05
:103680003A68D2B21A70624B1B6803F00F023B68B3
:103690009A4201D00123B6E07B681B6803F0020365
:1036A000002B20D07B681B6803F00403002B05D09F
:1036B000584A584B9B6843F4E05393607B681B68FF
:1036C00003F00803002B05D0524A524B9B6843F489
:1036D000604393604F494F4B9B6823F0F0027B6837
:1036E0009B6813438B607B681B6803F00103002B0E
:1036F00044D07B685B68012B07D1464B1B6803F401
:103700000033002B19D101237DE07B685B68022B1D
:1037100003D07B685B68032B07D13E4B1B6803F02B
:103720000073002B09D101236DE03A4B1B6803F0B5
:103730000203002B01D1012365E03649354B9B681C
:1037400023F003027B685B6813438B60FDF748FB43
:10375000F8600AE0FDF744FB0246FB68D31A41F229
:103760008832934201D903234DE02A4B9B6803F032
:103770000C027B685B689B009A42EBD1244B1B6870
:1037800003F00F023B689A420CD9214B3A68D2B23F
:103790001A701F4B1B6803F00F023B689A4201D05E
:1037A000012330E07B681B6803F00403002B08D082
:1037B0001849184B9B6823F4E0527B68DB6813437D
:1037C0008B607B681B6803F00803002B09D011494C
:1037D000104B9B6823F460427B681B69DB0013433A
:1037E0008B6000F01DF801460A4B9B681B0903F033
:1037F0000F03094AD35C21FA03F3084A136000203F
:1038000006F03AFC002318461037BD4680BD00BFC5
:10381000003C0240003802404CD1000898000020D3
:103820002DE9F04F8FB000AF0023FB6200237B63D4
:103830000023BB6200233B63624B9B6803F00C03D5
:10384000042B07D0082B08D0002B40F0B2805E4B31
:103850003B63B1E05D4B3B63AEE05A4B5B6803F00A
:103860003F03FB62574B5B6803F48003002B4ED091
:10387000544B5B689B094FF0000440F2FF114FF07E
:10388000000201EA030102EA04020B461446600149
:103890007862786A40EAD36078625B013B62D7E97C
:1038A00008345B1A64EB02044FEA841949EA93690D
:1038B0004FEA8318B8EB030869EB04094FEAC90320
:1038C000FB61FB6943EA5873FB614FEAC803BB61C4
:1038D000D7E9068918EB010849EB02094FEA4923A9
:1038E0007B617B6943EAD8537B614FEA48233B61A4
:1038F000D7E9048940464946FB6A4FF000041A465E
:103900002346FDF7AFF803460C467B6343E02D4B9F
:103910005B689B094FF0000440F2FF114FF000027A
:1039200001EA030102EA04020B4614466001F86052
:10393000F86840EAD360F8605B01BB60D7E9023405
:103940005B1A64EB0204A60146EA93669D01ED1A38
:1039500066EB0406F3007B607B6843EA55737B608B
:10396000EB003B6097E860006D1846EB02064FEAFB
:10397000862B4BEA955B4FEA852A55465E462846DC
:103980003146FB6A4FF000041A462346FDF76AF8F9
:1039900003460C467B630B4B5B681B0C03F0030375
:1039A00001335B00BB627A6BBB6AB2FBF3F33B6330
:1039B00002E0054B3B6300BF3B6B18463C37BD46FE
:1039C000BDE8F08F003802400024F40000127A00B5
:1039D00080B400AF034B1B681846BD465DF8047BFE
:1039E000704700BF9800002080B500AFFFF7F0FFE0
:1039F0000146054B9B689B0A03F00703034AD35C0F
:103A000021FA03F3184680BD003802405CD100085B
:103A100080B500AFFFF7DCFF0146054B9B685B0BF1
:103A200003F00703034AD35C21FA03F3184680BD71
:103A3000003802405CD1000880B483B000AF7860E9
:103A400039607B680F221A60124B9B6803F00302F7
:103A50007B685A600F4B9B6803F0F0027B689A60AA
:103A60000C4B9B6803F4E0527B68DA60094B9B685F
:103A7000DB0803F4E0527B681A61074B1B6803F014
:103A80000F023B681A6000BF0C37BD465DF8047B2F
:103A9000704700BF00380240003C024080B586B04D
:103AA00000AF786000237B6100233B617B681B686B
:103AB00003F00103002B05D17B681B6803F00203B0
:103AC000002B61D0A34B00221A60FDF789F97861C1
:103AD00008E0FDF785F902467B69D31A022B01D96C
:103AE000032377E19C4B1B6803F00063002BF0D1AC
:103AF0007B681B6803F00103002B09D096497B68A3
:103B00005B689A017B689B681B071343C1F884308C
:103B10007B681B6803F00203002B1FD08E4BD3F889
:103B200084301B0F03F007033B618B497B685B68A4
:103B30009A017B68DB681B061A433B691B0713432A
:103B4000C1F884308449844BD3F88C3023F01F02B1
:103B50007B68DB69013B1343C1F88C307D4B01224C
:103B60001A60FDF73DF9786108E0FDF739F9024682
:103B70007B69D31A022B01D903232BE1764B1B68F7
:103B800003F00063002BF0D07B681B6803F0040394
:103B9000002B05D17B681B6803F00803002B79D04C
:103BA0006E4B00221A60FDF71BF9786108E0FDF703
:103BB00017F902467B69D31A022B01D9032309E1C5
:103BC000654B1B6803F00053B3F1005FEFD07B68D7
:103BD0001B6803F00403002B20D05F4BD3F8883020
:103BE0001B0F03F007033B615B497B681B699A016C
:103BF0007B685B691B061A433B691B071343C1F8CB
:103C000088305549544BD3F88C3023F4F8527B68F4
:103C10001B6A013B1B021343C1F88C307B681B6895
:103C200003F00803002B1ED04B4BD3F888301B0E3B
:103C300003F00F033B6148497B681B699A013B69AC
:103C40001B061A437B689B691B071343C1F8883026
:103C50004149414BD3F88C3023F440327B685B6A96
:103C60001343C1F88C303D4B01221A60FDF7B8F8C0
:103C7000786108E0FDF7B4F802467B69D31A022B9D
:103C800001D90323A6E0344B1B6803F00053B3F1C2
:103C9000005FEFD17B681B6803F02003002B00F06E
:103CA0008D800023FB602C4A2B4B1B6C43F0805310
:103CB0001364294B1B6C03F08053FB60FB68284A9C
:103CC000274B1B6843F480731360FDF789F8786114
:103CD00008E0FDF785F802467B69D31A022B01D96B
:103CE000032377E01E4B1B6803F48073002BF0D096
:103CF000194B1B6F03F440733B613B69002B39D0B8
:103D00007B689B6A03F440723B699A4232D0124B43
:103D10001B6F23F440733B61124B01221A60114B5D
:103D200000221A600C4A3B6913670B4B1B6F03F0B0
:103D30000103012B1ED1FDF753F8786114E0FDF764
:103D40004FF802467B69D31A41F2883293420BD96D
:103D500003233FE0680047420038024070004742BA
:103D600000700040400E47421C4B1B6F03F00203E3
:103D7000002BE4D07B689B6A03F44073B3F5407F6B
:103D80000DD11649154B9B6823F4F8127B689B6A8A
:103D900023F0704323F4407313438B6005E00F4A14
:103DA0000E4B9B6823F4F81393600C490B4B1A6F6E
:103DB0007B689B6AC3F30B0313430B677B681B6829
:103DC00003F01003002B04D0054A7B6893F82C30D5
:103DD0001360002318461837BD4680BD00380240E6
:103DE000E011474280B582B000AF786039607B68EF
:103DF000002B01D1012325E07B6893F82C30DBB246
:103E0000002B06D17B68002283F82D20786802F011
:103E1000EDFD7B68022283F82C207B681A687B68A2
:103E200004331946104601F01FFA7B6818687B6856
:103E30005B681A46396801F08AFA7B68012283F8C8
:103E40002C20002318460837BD4680BD80B584B0BD
:103E500000AFF860B9607A60FB6893F82C30DBB291
:103E6000022B01D1022318E0FB68022283F82C20E8
:103E7000FB681B687A68B968184601F0E7FABB6806
:103E80001B68022B04D1FB68052283F82C2003E079
:103E9000FB68012283F82C20002318461037BD460A
:103EA00080BD80B582B000AF786039607B6893F8E0
:103EB0002C30DBB2022B01D102230EE07B68022200
:103EC00083F82C207B681B683968184601F0FAFAE1
:103ED0007B68012283F82C20002318460837BD4652
:103EE00080BD80B582B000AF78607B68002B01D1C7
:103EF000012355E07B6800229A627B6893F8513079
:103F0000DBB2002B06D17B68002283F85020786852
:103F100004F0F6FC7B68022283F851207B681B6862
:103F20007A681268126822F040021A607B681B6887
:103F30007A6851687A68926811437A68D268114346
:103F40007A68126911437A68526911437A689269F2
:103F500002F4007211437A68D26911437A68126AD6
:103F600011437A68926A0A431A607B681B687A6810
:103F70009269120C02F004017A68526A0A435A608C
:103F80007B681B687A681268D26922F40062DA6181
:103F90007B6800225A657B68012283F85120002348
:103FA00018460837BD4680BD80B582B000AF786046
:103FB0007B68002B01D101231AE07B68022283F881
:103FC00051207B681B687A681268126822F04002F0
:103FD0001A60786804F0DCFC7B6800225A657B6814
:103FE000002283F851207B68002283F850200023B0
:103FF00018460837BD4680BD80B588B000AFF86070
:10400000B9603B601346FB800023FB77FB6893F8A5
:104010005030012B01D102231CE1FB68012283F8FF
:104020005020FCF7DDFEB861FB88FB82FB6893F84B
:104030005130DBB2012B02D00223FB7701E1BB68D8
:10404000002B02D0FB88002B02D10123FB77F8E084
:10405000FB68032283F85120FB6800225A65FB6845
:10406000BA681A63FB68FA889A86FB68FA88DA8667
:10407000FB6800229A63FB6800229A87FB68002293
:10408000DA87FB6800225A64FB6800221A64FB6826
:104090009B68B3F5004F07D1FB681B68FA6812688C
:1040A000126842F480421A60FB681B681B6803F0C8
:1040B0004003402B07D0FB681B68FA68126812683F
:1040C00042F040021A60FB68DB68B3F5006F4BD129
:1040D000FB685B68002B02D0FB8A012B3ED1FB689A
:1040E0001B68FA68126B1288DA60FB681B6B9A1CFB
:1040F000FB681A63FB68DB8E9BB2013B9AB2FB68DC
:10410000DA862BE0FB681B689B6803F00203022B36
:1041100012D1FB681B68FA68126B1288DA60FB68C0
:104120001B6B9A1CFB681A63FB68DB8E9BB2013B1E
:104130009AB2FB68DA8611E0FCF752FE0246BB69D0
:10414000D21A3B689A4203D33B68B3F1FF3F02D1D6
:104150003B68002B02D10323FB7772E0FB68DB8E08
:104160009BB2002BCED14CE0FB685B68002B02D0E9
:10417000FB8A012B40D1FB681B680C33FA68126B79
:1041800012781A70FB681B6B5A1CFB681A63FB6879
:10419000DB8E9BB2013B9AB2FB68DA862CE0FB68AF
:1041A0001B689B6803F00203022B13D1FB681B689A
:1041B0000C33FA68126B12781A70FB681B6B5A1C6E
:1041C000FB681A63FB68DB8E9BB2013B9AB2FB680B
:1041D000DA8611E0FCF704FE0246BB69D21A3B689E
:1041E0009A4203D33B68B3F1FF3F02D13B68002BF7
:1041F00002D10323FB7724E0FB68DB8E9BB2002B0C
:10420000CDD1BA693968F86800F07BFB0346002B12
:1042100002D0FB6820225A65FB689B68002B0AD1FC
:1042200000233B61FB681B68DB683B61FB681B6824
:104230009B683B613B69FB685B6D002B01D00123F0
:10424000FB77FB68012283F85120FB68002283F88A
:104250005020FB7F18462037BD4680BD80B588B012
:1042600002AFF860B9603B601346FB800023FB752A
:10427000FB685B68B3F5827F12D1FB689B68002BFB
:104280000ED1FB68042283F85120FA883B68009322
:104290001346BA68B968F86800F0E6F80346DFE04C
:1042A000FB6893F85030012B01D10223D8E0FB6862
:1042B000012283F85020FCF793FD3861FB6893F8E6
:1042C0005130DBB2012B02D00223FB75BFE0BB688B
:1042D000002B02D0FB88002B02D10123FB75B6E036
:1042E000FB68042283F85120FB6800225A65FB68B2
:1042F000BA689A63FB68FA889A87FB68FA88DA8753
:10430000FB6800221A63FB6800229A86FB68002281
:10431000DA86FB6800221A64FB6800225A64FB6894
:104320009B68B3F5004F07D1FB681B68FA681268F9
:10433000126822F480421A60FB681B681B6803F055
:104340004003402B07D0FB681B68FA6812681268AC
:1043500042F040021A60FB68DB68002B61D12DE05F
:10436000FB681B689B6803F00103012B14D1FB68F9
:104370009B6BFA6812680C321278D2B21A70FB6822
:104380009B6B5A1CFB689A63FB68DB8F9BB2013BFB
:104390009AB2FB68DA8711E0FCF722FD02463B691E
:1043A000D21A3B689A4203D33B68B3F1FF3F02D174
:1043B0003B68002B02D10323FB7548E0FB68DB8FD1
:1043C0009BB2002BCCD131E0FB681B689B6803F0EB
:1043D0000103012B13D1FB689B6BFA681268D2684A
:1043E00092B21A80FB689B6B9A1CFB689A63FB680D
:1043F000DB8F9BB2013B9AB2FB68DA8711E0FCF7D6
:10440000EFFC02463B69D21A3B689A4203D33B68F1
:10441000B3F1FF3F02D13B68002B02D10323FB75B0
:1044200015E0FB68DB8F9BB2002BCDD13A69396870
:10443000F86800F031FA0346002B02D0FB68202216
:104440005A65FB685B6D002B01D00123FB75FB688F
:10445000012283F85120FB68002283F85020FB7D65
:1044600018461837BD4680BD80B58CB000AFF860E7
:10447000B9607A607B800123FB62002387F82B30D0
:10448000FB6893F85030012B01D1022388E1FB68CF
:10449000012283F85020FCF7A3FC7862FB6893F8B4
:1044A000513087F82330FB685B68FB617B887B8336
:1044B00097F82330012B0FD0FB69B3F5827F07D12A
:1044C000FB689B68002B03D197F82330042B03D0A3
:1044D000022387F82B3059E1BB68002B05D07B689D
:1044E000002B02D07B88002B03D1012387F82B30CF
:1044F0004CE1FB6893F85130DBB2042B03D0FB682E
:10450000052283F85120FB6800225A65FB687A680F
:104510009A63FB687A88DA87FB687A889A87FB68EF
:10452000BA681A63FB687A88DA86FB687A889A86A2
:10453000FB6800221A64FB6800225A64FB681B684F
:104540001B6803F04003402B07D0FB681B68FA6828
:104550001268126842F040021A60FB68DB68B3F52B
:10456000006F78D1FB685B68002B02D07B8B012B3E
:1045700066D1FB681B68FA68126B1288DA60FB6808
:104580001B6B9A1CFB681A63FB68DB8E9BB2013BBA
:104590009AB2FB68DA8653E0FB681B689B6803F0FD
:1045A0000203022B1BD1FB68DB8E9BB2002B16D0C3
:1045B000FB6A012B13D1FB681B68FA68126B128827
:1045C000DA60FB681B6B9A1CFB681A63FB68DB8E66
:1045D0009BB2013B9AB2FB68DA860023FB62FB6860
:1045E0001B689B6803F00103012B19D1FB68DB8F6B
:1045F0009BB2002B14D0FB689B6BFA681268D268E0
:1046000092B21A80FB689B6B9A1CFB689A63FB68EA
:10461000DB8F9BB2013B9AB2FB68DA870123FB6216
:10462000FCF7DEFB02467B6AD21ABB6B9A4207D3C9
:10463000BB6BB3F1FF3F03D0032387F82B30A5E01A
:10464000FB68DB8E9BB2002BA6D1FB68DB8F9BB295
:10465000002BA1D17CE0FB685B68002B02D07B8B38
:10466000012B6BD1FB681B680C33FA68126B127854
:104670001A70FB681B6B5A1CFB681A63FB68DB8EA5
:104680009BB2013B9AB2FB68DA8657E0FB681B6875
:104690009B6803F00203022B1CD1FB68DB8E9BB2EC
:1046A000002B17D0FB6A012B14D1FB681B680C335D
:1046B000FA68126B12781A70FB681B6B5A1CFB6845
:1046C0001A63FB68DB8E9BB2013B9AB2FB68DA8609
:1046D0000023FB62FB681B689B6803F00103012B4E
:1046E00019D1FB68DB8F9BB2002B14D0FB689B6B4E
:1046F000FA681268D268D2B21A70FB689B6B5A1CB7
:10470000FB689A63FB68DB8F9BB2013B9AB2FB6844
:10471000DA870123FB62FCF763FB02467B6AD21A4D
:10472000BB6B9A4203D3BB6BB3F1FF3F02D1BB6BB0
:10473000002B03D1032387F82B3027E0FB68DB8EA7
:104740009BB2002BA2D1FB68DB8F9BB2002B9DD1CB
:104750007A6AB96BF86800F0D4F80346002B06D0EB
:10476000012387F82B30FB6820225A650EE0FB6896
:104770009B68002B0AD100237B61FB681B68DB6808
:104780007B61FB681B689B687B617B69FB6801221E
:1047900083F85120FB68002283F8502097F82B30D3
:1047A00018463037BD4680BD80B483B000AF786016
:1047B0007B6893F85130DBB218460C37BD465DF884
:1047C000047B704780B584B000AFF860B9603B608F
:1047D0001346FB714CE03B68B3F1FF3F48D0FCF758
:1047E000FFFA0246BB69D21A3B689A4202D23B6882
:1047F000002B3DD1FB681B68FA681268526822F0F2
:10480000E0025A60FB685B68B3F5827F11D1FB68F8
:104810009B68B3F5004F04D0FB689B68B3F5806FCD
:1048200007D1FB681B68FA681268126822F0400220
:104830001A60FB689B6AB3F5005F0FD1FB681B68C9
:10484000FA681268126822F400521A60FB681B684A
:10485000FA681268126842F400521A60FB6801227A
:1048600083F85120FB68002283F8502003230FE0D7
:10487000FB681B689A68BB681A40BB689A420CBF09
:1048800001230023DBB21A46FB799A42A3D100230D
:1048900018461037BD4680BD80B586B002AFF860BF
:1048A000B9607A60FB685B68B3F5827F11D1FB6801
:1048B0009B68B3F5004F04D0FB689B68B3F5806F2D
:1048C00007D1FB681B68FA681268126822F0400280
:1048D0001A607B680093BB6800228021F868FFF7AC
:1048E00071FF0346002B07D0FB685B6D43F020028D
:1048F000FB685A65032300E0002318461037BD46C5
:1049000080BD80B586B002AFF860B9607A607B6820
:104910000093BB6800228021F868FFF753FF03462D
:10492000002B07D0FB685B6D43F02002FB685A65E3
:10493000032300E0002318461037BD4680BD80B534
:1049400082B000AF78607B68002B01D101231DE0AD
:104950007B6893F83D30DBB2002B06D17B680022E8
:1049600083F83C20786800F015F87B68022283F811
:104970003D207B681A687B6804331946104600F0B6
:1049800067F97B68012283F83D2000231846083729
:10499000BD4680BD80B483B000AF786000BF0C37E7
:1049A000BD465DF8047B704780B485B000AF786089
:1049B0007B681B687A681268D26842F00102DA608C
:1049C0007B681B689B6803F00703FB60FB68062B92
:1049D00007D07B681B687A681268126842F001028F
:1049E0001A60002318461437BD465DF8047B7047F3
:1049F00080B582B000AF78607B681B681B6903F0EC
:104A00000203022B22D17B681B68DB6803F00203E0
:104A1000022B1BD17B681B686FF002021A617B6856
:104A200001221A777B681B689B6903F00303002B44
:104A300003D0786800F0EEF805E0786800F0E0F860
:104A4000786800F0F1F87B6800221A777B681B68B1
:104A50001B6903F00403042B22D17B681B68DB680D
:104A600003F00403042B1BD17B681B686FF0040266
:104A70001A617B6802221A777B681B689B6903F4C2
:104A80004073002B03D0786800F0C4F805E0786824
:104A900000F0B6F8786800F0C7F87B6800221A7753
:104AA0007B681B681B6903F00803082B22D17B6815
:104AB0001B68DB6803F00803082B1BD17B681B68AD
:104AC0006FF008021A617B6804221A777B681B6802
:104AD000DB6903F00303002B03D0786800F09AF839
:104AE00005E0786800F08CF8786800F09DF87B6845
:104AF00000221A777B681B681B6903F01003102BD8
:104B000022D17B681B68DB6803F01003102B1BD1DC
:104B10007B681B686FF010021A617B6808221A77A5
:104B20007B681B68DB6903F44073002B03D0786853
:104B300000F070F805E0786800F062F8786800F03E
:104B400073F87B6800221A777B681B681B6903F087
:104B50000103012B0ED17B681B68DB6803F00103A6
:104B6000012B07D17B681B686FF001021A6178681E
:104B700003F076FE7B681B681B6903F08003802BC3
:104B80000ED17B681B68DB6803F08003802B07D1A4
:104B90007B681B686FF080021A61786800F002F988
:104BA0007B681B681B6903F04003402B0ED17B68B8
:104BB0001B68DB6803F04003402B07D17B681B6850
:104BC0006FF040021A61786800F038F87B681B6863
:104BD0001B6903F02003202B0ED17B681B68DB6868
:104BE00003F02003202B07D17B681B686FF02002A5
:104BF0001A61786800F0CCF800BF0837BD4680BD68
:104C000080B483B000AF786000BF0C37BD465DF85C
:104C1000047B704780B483B000AF786000BF0C376E
:104C2000BD465DF8047B704780B483B000AF786008
:104C300000BF0C37BD465DF8047B704780B483B07D
:104C400000AF786000BF0C37BD465DF8047B70474D
:104C500080B485B000AF786039607B681B68FB600A
:104C60007B68404A934213D07B68B3F1804F0FD0EA
:104C70007B683D4A93420BD07B683C4A934207D005
:104C80007B683B4A934203D07B683A4A934208D1FF
:104C9000FB6823F07003FB603B685B68FA681343B2
:104CA000FB607B682F4A93422BD07B68B3F1804F27
:104CB00027D07B682C4A934223D07B682B4A9342AF
:104CC0001FD07B682A4A93421BD07B68294A9342B3
:104CD00017D07B68284A934213D07B68274A9342B7
:104CE0000FD07B68264A93420BD07B68254A9342BB
:104CF00007D07B68244A934203D07B68234A9342BF
:104D000008D1FB6823F44073FB603B68DB68FA68FA
:104D10001343FB60FB6823F080023B685B6913432D
:104D2000FB607B68FA681A603B689A687B68DA62A5
:104D30003B681A687B689A627B680A4A934203D090
:104D40007B680C4A934203D13B681A697B681A63FB
:104D50007B6801225A6100BF1437BD465DF8047BB1
:104D6000704700BF00000140000400400008004000
:104D7000000C00400004014000400140004401409C
:104D80000048014000180040001C00400020004086
:104D900080B483B000AF786000BF0C37BD465DF8CB
:104DA000047B704780B483B000AF786000BF0C37DD
:104DB000BD465DF8047B704780B582B000AF786077
:104DC0007B68002B01D101233FE07B6893F83930E9
:104DD000DBB2002B06D17B68002283F8382078688C
:104DE00005F0B2FC7B68242283F839207B681B68BD
:104DF0007A681268D26822F40052DA60786800F0AB
:104E000029F87B681B687A681268126922F490425C
:104E10001A617B681B687A681268526922F02A025C
:104E20005A617B681B687A681268D26842F4005243
:104E3000DA607B680022DA637B68202283F83920FD
:104E40007B68202283F83A20002318460837BD46A5
:104E500080BD0000F0B585B000AF78607B681B684E
:104E60007A681268126922F440517A68D2680A435B
:104E70001A617B689A687B681B691A437B685B6967
:104E80001A437B68DB691343FB607B681A687B68A5
:104E90001B68DB6823F4164323F00C03F9680B430B
:104EA000D3607B681B687A681268526922F440718B
:104EB0007A6892690A435A617B68DB69B3F5004FEF
:104EC00040F0E4807B681B68AB4A934204D07B6867
:104ED0001B68AA4A93426CD17B681C68FEF798FD58
:104EE000024613469B0013449A001A447B685B6891
:104EF0005B00B2FBF3F3A24AA2FB03235B091D0193
:104F0000FEF786FD024613469B0013449A001A449E
:104F10007B685B685B00B2FBF3F6FEF779FD024647
:104F200013469B0013449A001A447B685B685B003D
:104F3000B2FBF3F3924AA2FB03235B09642202FB58
:104F400003F3F31ADB0032338D4AA2FB03235B0920
:104F50005B0003F4F8731D44FEF75AFD0246134646
:104F60009B0013449A001A447B685B685B00B2FBA9
:104F7000F3F6FEF74DFD024613469B0013449A00DC
:104F80001A447B685B685B00B2FBF3F37C4AA2FBCC
:104F900003235B09642202FB03F3F31ADB003233C1
:104FA000774AA2FB03235B0903F007032B44A360AA
:104FB00054E17B681C68FEF717FD024613469B0010
:104FC00013449A001A447B685B685B00B2FBF3F3FE
:104FD0006B4AA2FB03235B091D01FEF705FD024698
:104FE00013469B0013449A001A447B685B685B007D
:104FF000B2FBF3F6FEF7F8FC024613469B0013449F
:105000009A001A447B685B685B00B2FBF3F35C4A6E
:10501000A2FB03235B09642202FB03F3F31ADB0008
:105020003233574AA2FB03235B095B0003F4F87396
:105030001D44FEF7D9FC024613469B0013449A0018
:105040001A447B685B685B00B2FBF3F6FEF7CCFCAE
:10505000024613469B0013449A001A447B685B681F
:105060005B00B2FBF3F3464AA2FB03235B09642215
:1050700002FB03F3F31ADB003233414AA2FB0323A2
:105080005B0903F007032B44A360E7E07B681B6820
:10509000394A934204D07B681B68384A934271D1E5
:1050A0007B681C68FEF7B4FC024613469B00134461
:1050B0009A001A447B685B689B00B2FBF3F3304AAA
:1050C000A2FB03235B091D01FEF7A2FC0246134667
:1050D0009B0013449A001A447B685B689B00B2FBF8
:1050E000F3F6FEF795FC024613469B0013449A0024
:1050F0001A447B685B689B00B2FBF3F3204AA2FB77
:1051000003235B09642202FB03F3F31A1B0132330E
:105110001B4AA2FB03235B0903F0F0031D44FEF7C7
:1051200077FC024613469B0013449A001A447B689E
:105130005B689B00B2FBF3F6FEF76AFC024613467F
:105140009B0013449A001A447B685B689B00B2FB87
:10515000F3F30B4AA2FB03235B09642202FB03F374
:10516000F31A1B013233064AA2FB03235B0903F047
:105170000F032B44A36071E00010014000140140B4
:105180001F85EB517B681C68FEF72EFC0246134618
:105190009B0013449A001A447B685B689B00B2FB37
:1051A000F3F3304AA2FB03235B091D01FEF71CFC4D
:1051B000024613469B0013449A001A447B685B68BE
:1051C0009B00B2FBF3F6FEF70FFC024613469B0072
:1051D00013449A001A447B685B689B00B2FBF3F3AC
:1051E000204AA2FB03235B09642202FB03F3F31AA8
:1051F0001B0132331B4AA2FB03235B0903F0F003BC
:105200001D44FEF7F1FB024613469B0013449A002F
:105210001A447B685B689B00B2FBF3F6FEF7E4FB85
:10522000024613469B0013449A001A447B685B684D
:105230009B00B2FBF3F30B4AA2FB03235B0964223E
:1052400002FB03F3F31A1B013233064AA2FB0323CA
:105250005B0903F00F032B44A360FFE700BF143783
:10526000BD46F0BD1F85EB5180B485B000AF7860BE
:1052700039600023FB600023BB603B681B68012B87
:1052800029D07B681B68FB60FB6823F4FF4323F095
:105290007F03FB603B685A683B689B681A433B6826
:1052A000DB681A433B681B691A433B685B691A4316
:1052B0003B689B691A433B68DB691A433B681B6A7E
:1052C0001A433B685B6A1343FA681343FB607B68CD
:1052D000FA681A6034E07B681B68FB60FB6823F4A3
:1052E000F843FB603B68DA693B681B6A1A433B681A
:1052F0005B6A1343FA681343FB607B685B68BB60BF
:10530000BB6823F4FF4323F07F03BB603B685A680C
:105310003B689B681A433B68DB681A433B681B6920
:105320001A433B685B691A433B689B691343BA683D
:105330001343BB607B68FA681A607B68BA685A607E
:10534000002318461437BD465DF8047B704780B4CF
:1053500087B000AFF860B9607A6000237B610023FA
:105360003B617B68012B2ED0FB689B687B617B696E
:1053700003F070437B61BB681B685A1EBB685B68A7
:10538000013B1B011A43BB689B68013B1B021A438C
:10539000BB68DB68013B1B031A43BB681B69013B0D
:1053A0001B041A43BB685B69013B1B051A43BB68BE
:1053B0009B69013B1B0613437A6913437B61FB68BE
:1053C0007A699A603BE0FB689B687B617B6923F4A8
:1053D000700323F470437B61BB68DB68013B1A03F5
:1053E000BB685B69013B1B0513437A6913437B610F
:1053F000FB68DB683B613B6903F070433B61BB6862
:105400001B685A1EBB685B68013B1B011A43BB68E3
:105410009B68013B1B021A43BB681B69013B1B04D1
:105420001A43BB689B69013B1B0613433A6913434C
:105430003B61FB687A699A60FB683A69DA6000232D
:1054400018461C37BD465DF8047B704780B586B0B2
:1054500000AFF860B9607A6000233B6100237B6194
:10546000BB681A68BB685B681A43BB689B68013BF2
:105470005B011A43BB68DB685B0213433B613A691B
:10548000FB681A61FBF7ACFC786110E07B68B3F154
:10549000FF3F0CD07B68002B07D0FBF7A1FC024636
:1054A0007B69D21A7B689A4201D9032306E0FB6824
:1054B0009B6903F02003202BE8D0002318461837FF
:1054C000BD4680BD80B483B000AF786039607B6832
:1054D0005A693B685B001A437B685A61002318468F
:1054E0000C37BD465DF8047B704780B485B000AFD3
:1054F0000346FB800023FB60B7F90630842B05D000
:10550000B7F90620FB6813440333FB60FB681846B9
:105510001437BD465DF8047B704780B500AF00F0DE
:105520002DFE0023184680BDF0B587B002AF78602D
:1055300039607B685C687B681D687B681B699EB20C
:105540007B68B3F908301846FFF7CFFF024607F132
:105550000C03019300923B6832462946204600F036
:10556000AFFC0346012B01D0002300E0FB68184686
:105570001437BD46F0BD80B584B000AF78607B685D
:10558000FB60FB68002B01D0FB6800E0012318469C
:1055900000F0C0FD002318461037BD4680BD80B422
:1055A00083B000AF78607B6803F108027B685A60C3
:1055B0007B684FF0FF329A607B6803F108027B68DA
:1055C000DA607B6803F108027B681A617B6800225D
:1055D0001A6000BF0C37BD465DF8047B704780B48D
:1055E00083B000AF78607B6800221A6100BF0C377F
:1055F000BD465DF8047B704780B485B000AF78602D
:1056000039607B685B68FB603B68FA685A60FB68DE
:105610009A683B689A60FB689B683A685A60FB68C6
:105620003A689A603B687A681A617B681B685A1C02
:105630007B681A6000BF1437BD465DF8047B704775
:1056400080B485B000AF786039603B681B68BB6090
:10565000BB68B3F1FF3F03D17B681B69FB600CE0C3
:105660007B680833FB6002E0FB685B68FB60FB68FB
:105670005B681A68BB689A42F6D9FB685A683B684F
:105680005A603B685B683A689A603B68FA689A605F
:10569000FB683A685A603B687A681A617B681B68E5
:1056A0005A1C7B681A6000BF1437BD465DF8047B46
:1056B000704780B485B000AF78607B681B69FB6081
:1056C0007B685B687A6892689A607B689B687A6896
:1056D00052685A60FB685A687B689A4203D17B68BB
:1056E0009A68FB685A607B6800221A61FB681B6835
:1056F0005A1EFB681A60FB681B6818461437BD46C3
:105700005DF8047B7047000080B485B000AFF8609E
:10571000B9607A60FB68043BFB60FB684FF0807205
:105720001A60FB68043BFB60BB6823F00102FB6866
:105730001A60FB68043BFB600C4AFB681A60FB685C
:10574000143BFB607A68FB681A60FB68043BFB60F3
:10575000FB686FF002021A60FB68203BFB60FB688D
:1057600018461437BD465DF8047B70477157000832
:1057700080B485B000AF00237B60114B1B68B3F190
:10578000FF3F09D04FF0500383F31188BFF36F8FB1
:10579000BFF34F8FFB60FEE74FF0500383F3118898
:1057A000BFF36F8FBFF34F8FBB6000BF7B68002BD1
:1057B000FCD000BF1437BD465DF8047B704700BFC6
:1057C00004000020000000000000000000000000B5
:1057D000074B19680868B0E8F04F80F30988BFF3F9
:1057E0006F8F4FF0000080F311887047AFF3008097
:1057F000D83C002000BF00BF08480068006880F364
:1058000008884FF0000080F3148862B661B6BFF3D9
:105810004F8FBFF36F8F00DF00BF00BF08ED00E0C8
:1058200080B586B000AF444B1B68444A934209D10F
:105830004FF0500383F31188BFF36F8FBFF34F8F87
:105840003B61FEE73C4B1B683D4A934209D14FF058
:10585000500383F31188BFF36F8FBFF34F8FFB604B
:10586000FEE7384B7B617B691B78DBB27B607B6931
:10587000FF221A707B691B78DBB2FB70FB78DBB20E
:1058800003F05003DAB2304B1A70304B07221A6023
:1058900009E02E4B1B68013B2C4A1360FB78DBB2FE
:1058A0005B00DBB2FB70FB78DBB203F08003802B84
:1058B000EFD0264B1B68C3F10703042B09D04FF030
:1058C000500383F31188BFF36F8FBFF34F8FBB601B
:1058D000FEE71E4B1B681B021C4A13601B4B1B6818
:1058E00003F4E063194A13607B68DAB27B691A70CB
:1058F000174A174B1B6843F470031360144A144B88
:105900001B6843F07043136000F0D6F8114B00227F
:105910001A6000F0F5F8104A0F4B1B6843F0404343
:105920001360FFF769FF00F0D5FDFFF721FF0023AB
:1059300018461837BD4680BD00ED00E071C20F412A
:1059400070C20F4100E400E0B8000020BC0000205D
:1059500020ED00E00400002034EF00E080B483B0CC
:1059600000AF4FF0500383F31188BFF36F8FBFF385
:105970004F8F7B600E4B1B6801330D4A13600C4B3D
:105980001B68012B0ED10B4B1B68DBB2002B09D01F
:105990004FF0500383F31188BFF36F8FBFF34F8F26
:1059A0003B60FEE700BF0C37BD465DF8047B7047E7
:1059B0000400002004ED00E080B483B000AF114B80
:1059C0001B68002B09D14FF0500383F31188BFF3FC
:1059D0006F8FBFF34F8F7B60FEE70A4B1B68013B65
:1059E000084A1360074B1B68002B04D100233B605F
:1059F0003B6883F3118800BF0C37BD465DF8047B1C
:105A0000704700BF040000200000000000000000FC
:105A1000EFF30980BFF36F8F154B1A681EF0100F5C
:105A200008BF20ED108A20E9F04F10602DE9090031
:105A30004FF0500080F31188BFF34F8FBFF36F8F8B
:105A400000F048FD4FF0000080F3118809BC196890
:105A50000868B0E8F04F1EF0100F08BFB0EC108AD5
:105A600080F30988BFF36F8F704700BFAFF30080EA
:105A7000D83C002000BF00BF80B582B000AF4FF01F
:105A8000500383F31188BFF36F8FBFF34F8F7B6099
:105A900000F064FC0346002B03D0064B4FF080520D
:105AA0001A6000233B603B6883F3118800BF08370E
:105AB000BD4680BD04ED00E080B400AF0B4B00227A
:105AC0001A600B4B00221A600A4A0B4B1B680B49E9
:105AD000A1FB03139B09013B1360044B07221A60CF
