:020000040800F2
:100000000000032039510008494E00084B4E0008FB
:100010004D4E00084F4E0008514E000800000000F1
:10002000000000000000000000000000512800084F
:10003000534E000800000000E1280008554E00085B
:100040008951000889510008895100088951000828
:100050008951000889510008895100088951000818
:100060008951000889510008895100088951000808
:1000700089510008895100088951000889510008F8
:1000800089510008895100088951000889510008E8
:1000900089510008895100088951000889510008D8
:1000A00089510008895100088951000889510008C8
:1000B00089510008895100088951000889510008B8
:1000C00089510008895100088951000889510008A8
:1000D0008951000889510008895100088951000898
:1000E0008951000889510008895100088951000888
:1000F0008951000889510008895100088951000878
:100100008951000889510008895100088951000867
:100110008951000889510008895100088951000857
:100120008951000889510008895100088951000847
:100130008951000889510008895100088951000837
:100140008951000889510008895100088951000827
:100150008951000889510008895100088951000817
:100160008951000889510008895100088951000807
:1001700089510008895100088951000800000000D9
:1001800089510008895100088951000889510008E7
:1001900089510008895100088951000889510008D7
:0C01A000895100088951000889510008AD
:1001B00010B5054C237833B9044B13B10448AFF3A1
:1001C00000800123237010BD940000200000000077
:1001D000FC51000808B5034B1BB103490348AFF3BA
:1001E000008008BD0000000098000020FC510008BD
:1001F00053B94AB9002908BF00281CBF4FF0FF318E
:100200004FF0FF3000F07AB9ADF1080C6DE904CE83
:1002100000F006F8DDF804E0DDE9022304B07047E1
:100220002DE9F0478C460D460446089E002B51D11F
:100230008A4217466DD9B2FA82FEBEF1000F0BD08A
:10024000CEF1200C01FA0EF520FA0CFC02FA0EF7A2
:100250004CEA050C00FA0EF44FEA174A250CBCFBD9
:10026000FAF81FFA87F90AFB18CC45EA0C4508FB97
:1002700009F3AB420AD9ED1908F1FF3280F023816E
:10028000AB4240F22081A8F102083D44ED1AA4B22D
:10029000B5FBFAF00AFB105544EA054400FB09F9E6
:1002A000A14509D9E41900F1FF3380F00A81A14585
:1002B00040F2078102383C44A4EB090440EA0840BC
:1002C0000021002E61D024FA0EF400233460736004
:1002D000BDE8F0878B4207D9002E54D0002186E874
:1002E00021000846BDE8F087B3FA83F1002940F009
:1002F0008E80AB4202D3824200F2FA80841A65EB10
:1003000003050120AC46002E3FD086E81010BDE862
:10031000F08712B90127B7FBF2F7B7FA87FEBEF1F3
:10032000000F34D1EB1B3A0C1FFA87FC0121B3FB01
:10033000F2F8250C02FB183345EA03450CFB08F3E1
:10034000AB4207D9ED1908F1FF3002D2AB4200F2FF
:10035000D1808046ED1AA3B2B5FBF2F002FB105536
:1003600043EA05440CFB00FCA44507D9E41900F15D
:10037000FF3302D2A44500F2B8801846A4EB0C0467
:1003800040EA08409DE731463046BDE8F087CEF1AF
:10039000200405FA0EF307FA0EF720FA04F83A0CD7
:1003A00025FA04F448EA0308B4FBF2F14FEA1845D1
:1003B00002FB11441FFA87FC45EA044501FB0CF3DC
:1003C000AB4200FA0EF409D9ED1901F1FF3080F0CB
:1003D0008A80AB4240F2878002393D44EB1A1FFA13
:1003E00088F5B3FBF2F002FB103345EA034500FB4E
:1003F0000CF3AB4207D9ED1900F1FF386FD2AB42D5
:100400006DD902383D44EB1A40EA01418FE7C1F152
:10041000200722FA07F88B4005FA01F448EA0303A3
:1004200020FA07FE4FEA134CFD404EEA040EB5FBDE
:10043000FCF94FEA1E440CFB19551FFA83F844EAF5
:10044000054509FB08F4AC4202FA01F200FA01FA90
:1004500008D9ED1809F1FF3043D2AC4241D9A9F1D6
:1004600002091D442D1B1FFA8EFEB5FBFCF00CFB90
:1004700010554EEA054400FB08F8A04507D9E418DA
:1004800000F1FF3529D2A04527D902381C4440EAA3
:100490000940A4EB0804A0FB02894C45C6464D4622
:1004A00015D312D056B1BAEB0E0364EB050404FA6F
:1004B00007F7CB401F43CC40376074600021BDE894
:1004C000F0871846F8E69046E0E6C245EAD2B8EB77
:1004D000020E69EB03050138E4E72846D7E74046FA
:1004E00091E78146BEE7014678E702383C4445E79C
:1004F000084608E7A8F102083D442BE7704700BF13
:1005000038B50E4A0E4B054618784FF47A73B3FB94
:10051000F0F31068B0FBF3F000F0AAF8044658B905
:100520000F2D09D8024629464FF0FF3000F05EF843
:10053000044B20461D6038BD012038BD90000020CE
:10054000000000200400002008B50B4B1A6842F49C
:1005500000721A601A6842F480621A601A6842F4E3
:1005600080721A60032000F02FF80F20FFF7C8FFF9
:1005700004F048FC002008BD003C0240034A044B44
:1005800011681B780B441360704700BFAC3E00201D
:1005900000000020014B1868704700BFAC3E0020EF
:1005A00038B50446FFF7F6FF631C1CBF054B1B78EC
:1005B000054618BFE418FFF7EDFF401B8442FAD848
:1005C00038BD00BF00000020074AD36823F4E06371
:1005D0001B041B0C43F0BF63000243F4003300F420
:1005E000E0600343D360704700ED00E0174B30B587
:1005F000DC68C4F30224C4F10703251D042B28BFC3
:100600000423062D4FF0010505FA03F303F1FF3330
:100610008CBF033C00241940A14005FA04F4013CBE
:100620002240002842EA01024FEA0212ADBF00F167
:10063000604000F00F00064B00F56140B5BFD2B23C
:10064000D2B21A5480F8002330BD00BF00ED00E0A4
:1006500014ED00E0002808DB4209012300F01F0030
:1006600003FA00F0014B43F82200704700E100E07C
:100670000138B0F1807F0AD2064B074A5860F0215A
:1006800082F823100020072298601A60704701202A
:10069000704700BF10E000E000ED00E070B50468B6
:1006A000049D666C45EA034306F0404633436364A9
:1006B0004368E263B3F5403F30D186681EB1012E36
:1006C00003D121F07F41A16370BD022E01F47F03AD
:1006D00001F47F45C8B207D1D90CAD0AC90241EA7D
:1006E000451141EAD001EEE7032E01F07F420AD125
:1006F000DB0CED0A9B0243EA451343EAD003D10F1A
:1007000043EAC131DFE7190D2D0B090241EA05115A
:1007100041EA1011130F41EA0331D4E7E16070BDE3
:1007200010B5044630B390F8393003F0FF021BB91E
:1007300080F8382002F0D6FD22686168022384F830
:100740003930136823F440330B431360536BA168B3
:1007500023F007030B435363136CE16823F47F53C7
:1007600023F03F030B43136400200123E06384F86C
:10077000393010BD012010BD73B590F83840012C00
:1007800005464FF002040FD080F839400126069C40
:1007900080F838600094FFF781FF2A6813683343BC
:1007A0001360002002B070BD2046FBE773B5002344
:1007B000019303681B68DB0704460D4617D42268C3
:1007C000D369526A13439E0606D5FFF7E3FE064639
:1007D00023685A68D20643D5236812229A60002003
:1007E000012384F8393084F8380002B070BDFFF777
:1007F000D1FE064623685A689207E0D45A680192EF
:10080000019A12F0210F17D0019A950642BFE26BB0
:1008100042F00202E263019AD00742BFE26B42F06B
:100820000102E26321229A60042384F83930002314
:1008300084F838300120D8E7691CDCD0FFF7AAFE25
:10084000801B854201D3002DD4D1E36B43F02003FC
:10085000E3630320002384F8390084F83830C4E7C8
:100860005A680192019A12F0290F16D0019A1607C0
:1008700042BFE26B42F00402E263019A950642BF76
:10088000E26B42F00202E263019AD00742BFE26BE0
:1008900042F00102E2632922C5E7691C99D0FFF703
:1008A00079FE801B8542D0D3002D91D1CDE7000089
:1008B00090F83830012BF0B54FF0020336D00E011E
:1008C00080F8393083190122DD6980F838201A6AEE
:1008D0005C6A1B4F036845EA0242093D012D0FD8AF
:1008E00004F07F4E4EEA020269B9596A39400A4360
:1008F0005A6282699A61426A22F07F429A620FE0EC
:1009000042EA0462A1B1D969064439400A43012D83
:10091000DA6198BF24F07F44B2691A6198BF1C6203
:10092000012380F83930002380F838301846F0BDB4
:10093000596A39400A435A6282699A61F0E700BFF6
:10094000F0FFFC002DE9F04F85B00B68DFF8C481A3
:100950006E4ADFF8C491019300234FF0010E019C11
:100960000EFA03FE0EEA0406B64540F0B6804C6867
:1009700024F01007022F16D14FEAD30A00EB8A0A9F
:1009800003F0070BDAF820504FEA8B0B4FF00F0CF7
:100990000CFA0BFC25EA0C0C0D6905FA0BF545EA7F
:1009A0000C05CAF820504FEA430A0325D0F800B0DE
:1009B00005FA0AF5ED4304F0030C0BEA050B0CFAFB
:1009C0000AFC013F4CEA0B0C012FC0F800C011D803
:1009D000876807EA050BCF6807FA0AFC4CEA0B07A1
:1009E0008760476827EA0E0EC4F300179F4047EA66
:1009F0000E074760C7683D408F6807FA0AF73D4316
:100A0000C560E50069D54FF0000BCDF80CB0D8F803
:100A100044703F4D47F48047C8F84470D8F844709C
:100A200007F480470397039F23F0030707F18047EC
:100A300007F59C3703F0030CD7F808A04FEA8C0C9D
:100A40004FF00F0E0EFA0CFEA8422AEA0E0E4BD003
:100A500005F58065A84249D005F58065A84247D0D4
:100A600005F58065A84245D005F58065A84243D0CC
:100A7000484543D005F50065A84241D005F580659D
:100A8000A8423FD005F58065A8423DD005F58065B8
:100A9000A84214BF0A25092505FA0CF545EA0E05FA
:100AA000BD601568F74314F4803F0CBF3D403543EB
:100AB0001560556814F4003F0CBF3D403543556048
:100AC000956814F4801F0CBF3D4035439560D56890
:100AD000A40254BF3D403543D5600133102B7FF451
:100AE0003CAF05B0BDE8F08F5D46D5E70125D3E703
:100AF0000225D1E70325CFE70425CDE70525CBE780
:100B00000625C9E70725C7E70825C5E7003C0140DA
:100B10000000024000380240001402402DE9F04F6E
:100B2000464DDFF82091DFF820A1DFF820B1002248
:100B3000012303FA02FC0CEA0104A44567D122F068
:100B4000030606F1804606F59C3602F0030E3C4B88
:100B5000D6F808804FEA8E0E0F2707FA0EF7984254
:100B600008EA070858D003F58063984256D003F589
:100B70008063984254D003F58063984252D003F5C5
:100B80008063984250D0484550D0504550D0584589
:100B900050D003F5805398424ED003F580639842BD
:100BA0000CBF09230A2303FA0EF3984510D1B3684A
:100BB00023EA0707B7602B68E44323402B606B6888
:100BC00023406B60AB682340AB60EB681C40EC607B
:100BD000560003230468B340DB431C400460D40880
:100BE00000EB840402F0070E266A4FEA8E0E0F27F0
:100BF00007FA0EF726EA0707276284681C4084601C
:100C0000446824EA0C044460C4682340C360013291
:100C1000102A8DD1BDE8F08F0023C4E70123C2E77D
:100C20000223C0E70323BEE70423BCE70523BAE79A
:100C30000623B8E70723B6E70823B4E7003C0140E2
:100C4000000002400014024000180240001C024054
:100C50000AB1816170470904FBE701684B6913F42D
:100C600080634FF0000210D06FF480634B6120234B
:100C7000026380F83D3080F83E20036C80F83C2011
:100C800043F00403036401207047184670472DE9C0
:100C9000F843044617469946C1F307488EB22568C3
:100CA000B8F1010F0CBF6B69AB6936EA030314BFDF
:100CB0000120002008B9BDE8F8836B695A0516D5F4
:100CC0002B6843F400732B606FF480636B61202208
:100CD0000023236384F83D2084F83E30226C42F0E8
:100CE0000402226484F83C300120BDE8F8837B1CB8
:100CF000D5D0FFF74FFCA0EB0900874201D3002FAE
:100D0000CDD100232022236384F83D2084F83E3097
:100D1000226C42F02002E4E770B504460D46164608
:100D200023685B695B0701D5002070BD2046FFF793
:100D300094FFA8B96A1CF3D0FFF72CFC801B8542F6
:100D400001D3002DECD100232022236384F83D2021
:100D500084F83E30226C84F83C3042F02002226459
:100D6000012070BD70B504460D46164620684369E3
:100D700013F0400301D0002070BD4269D2060ED5A9
:100D80006FF0100242612022236384F83D2084F832
:100D90003E30226C226484F83C30012070BDFFF7A5
:100DA000F9FB801BA84201D8002DDFD100232022AF
:100DB000236384F83D2084F83E30226C42F0200208
:100DC000E8E72DE9F843089E044690461F46C1F324
:100DD00007498DB22368B9F1010F0CBF5B699B69AC
:100DE00035EA03030CBF01230023434502D0002052
:100DF000BDE8F8837B1CEDD0FFF7CCFB801B87425E
:100E000001D3002FE6D100232022236384F83D2064
:100E100084F83E30226C84F83C3042F02002226498
:100E20000120BDE8F88370B504460D4616462368D8
:100E30005B691B0601D5002070BD2046FFF70DFF42
:100E4000A8B96A1CF3D0FFF7A5FB801B854201D32C
:100E5000002DECD100232022236384F83D2084F868
:100E60003E30226C84F83C3042F0200222640120A3
:100E700070BD00002DE9FF41154602680B9E9846A3
:100E8000136843F4807313600F4600960A9B002298
:100E90004FF001110446FFF794FF18B1012004B090
:100EA000BDE8F08123680A9A184907F0FE071F6120
:100EB00020463346FFF7EBFE0028EFD1236803906E
:100EC0005A6903929B69039332460A99039B204611
:100ED000FFF7A9FF40B1236C042B01BF2268136800
:100EE00043F400731360D9E7B8F1010F236802D10E
:100EF000EDB21D61D3E72A0A1A610A9932462046EB
:100F0000FFF791FF0028E6D12368F1E70200010016
:100F10002DE9FF41984603680B9D16461A6842F476
:100F200080621A601A6842F480721A600F46009557
:100F30000A9B00224FF001110446FFF742FF18B14F
:100F4000012004B0BDE8F08123682B49FFB207F00F
:100F5000FE021A6120462B460A9AFFF798FE0028E7
:100F6000EED1236803905A6903929B6903932A4642
:100F70000A99039B2046FFF756FF40B1236C042BD0
:100F800001BF2268136843F400731360D8E7B8F117
:100F9000010F236825D1F6B21E612A460A99204620
:100FA000FFF741FF02460028E8D121680B6843F4AF
:100FB00080730B60204600950A9B4FF00111FFF7EC
:100FC00000FF0028BCD123680A9A0B4947F00107AB
:100FD0001F6120462B46FFF75AFE003018BF012044
:100FE000AFE7320A1A610A992A462046FFF71BFF2B
:100FF0000028C3D12368CEE70200010070B5044683
:1010000008B9012070BD90F83D3003F0FF021BB914
:1010100080F83C2002F024FC2268242384F83D3030
:10102000136823F00103136000F03EFE6568414B36
:101030009D424DD8404B9842E3D922683F495368BE
:10104000B0FBF1F123F03F030B435360136A23F02D
:101050003F03013119431162D169364B21F44F41ED
:101060009D4221F0FF0100F1FF3048D86D00B0FB38
:10107000F5F00130C0F30B03042B38BF04230B43FE
:10108000D3611168206AE36921F0C00103430B4377
:1010900013609168E068236921F40341034321F060
:1010A000FF010B439360D168A069636921F0FF01E0
:1010B00003430B43D360136843F001031360002024
:1010C0002023206484F83D30206384F83E0070BD06
:1010D0001B4B984295D92268184E5368B0FBF6F620
:1010E00023F03F0333435360136A4FF49671714307
:1010F00023F03F034FF47A76B1FBF6F1A9E7A3683A
:1011000053B905EB4503B0FBF3F0431CC3F30B03EA
:101110006BB143F40043B2E719236B43B0FBF3F028
:10112000431CC3F30B0313B143F44043A7E701236C
:10113000A5E700BFA08601007F841E0040420F008B
:10114000FF083D0010B5044698B10268242380F8DA
:101150003D30136823F00103136002F0D5FB00203B
:10116000206484F83C0084F83D00206384F83E004D
:1011700010BD012010BD00002DE9F743044699463B
:101180000F4690460C9EFFF705FA94F83D30202B51
:10119000054603D0022003B0BDE8F0830090192378
:1011A00001223B492046FFF70CFE0028F2D194F8BB
:1011B0003C30012BEED0012384F83C3023681A68C0
:1011C000D1075EBF1A6842F001021A601A6822F461
:1011D00000621A60212384F83D30402384F83E30B9
:1011E000002323640A9B6362BDF82C306385638D02
:1011F0002385284BE362019500964B4642463946CB
:101200002046FFF737FE00282AD00120C3E7FFF76A
:101210000AFE40B1236C042B01BF2268136843F41B
:1012200000731360F1E7636A27681A4612F8011B1E
:1012300039616262628D218D013A92B262857A696A
:10124000481E80B2520720850AD548B15A783A61C3
:1012500002336362638D013B02399BB22185638552
:10126000238D2A4631462046002BD0D1FFF754FD6E
:101270000028CFD12268136843F400731360202341
:1012800084F83D3084F83C0084F83E0083E700BFDA
:10129000020010000000FFFF2DE9F043044687B074
:1012A00099460D469046109FFFF774F994F83D302B
:1012B000202B064604D00225284607B0BDE8F0835F
:1012C00000901923012277492046FFF77AFD002874
:1012D000F1D194F83C30012BEDD0012384F83C305F
:1012E00023681A68D0075EBF1A6842F001021A60CC
:1012F0001A6822F400621A60222384F83D304023E9
:1013000084F83E30002323640E9B6362BDF83C30BA
:101310006385638D2385644BE362294601960097BC
:101320004B4642462046FFF7F3FD054608B101252E
:10133000C2E7228D236892B902905A6902929A6993
:101340000292029A1A6842F400721A60202384F80A
:101350003D30002384F83E3084F83C30ACE7012A6D
:101360002CD11A6822F480621A6003905A690392A1
:101370009A690392039A1A6842F400721A60DFF8BD
:101380002C81238D002BE1D0032B6ED8012B2DD186
:10139000324639462046FFF7E5FC0028C7D12268CF
:1013A000636A12691A70636A01336362238D013BB9
:1013B0002385638D013B9BB26385E2E7022A0ED150
:1013C0001A6822F480621A601A6842F400621A6095
:1013D00004905A6904929B690493049BCFE705909B
:1013E0005A6905929B690593059BC8E7022B0096F5
:1013F0003B464FF000024146204619D1FFF7E1FC81
:10140000002894D123681A6842F400721A60626A54
:101410001B691370626A531C6362238D013B238531
:10142000638D013B9BB2638523681B695370BAE7E8
:10143000FFF7C7FC024600287FF479AF23681968DC
:1014400021F480611960616A1B690B70636A009600
:1014500001336362238D013B2385638D013B9BB286
:10146000638541463B462046C8E73246394620461A
:10147000FFF778FC00287FF45AAF2268636A12698C
:101480001A70626A531C6362238D013B2385638D4E
:10149000013B9BB263852368596949077FF571AFAA
:1014A000C3E700BF020010000000FFFF04000100BE
:1014B00090F83D00704790F83D20D2B2202A10B538
:1014C00016D1242380F83D3003681C6824F0010401
:1014D0001C605C6A24F010045C625C6A21435962FF
:1014E000196841F00101196080F83D20002010BD0D
:1014F000022010BD30B590F83D40E4B2202C16D14A
:101500000268242380F83D30156825F00105156038
:10151000556A4FF6F0732B400B439BB2536213682E
:1015200043F00103136080F83D40002030BD0220ED
:1015300030BD2DE9F043D20104684F68E568D1F869
:1015400000E0D1F818908432A3180EF10106586813
:1015500000F470405860E068C5F30B45C0F30B40E1
:101560003D44304440EA05405860E068CD68C0F32F
:101570000A000544986800F470409860E66888683E
:10158000C6F30A060130304440EA05409860186905
:101590000E6920F0070018614FF0000C1E619D6974
:1015A00091F8320091F83180C3F818C091F83050AA
:1015B00045EA096545EA082545EA00459D615869FF
:1015C00020F0FF00586148695861D86920F4E06054
:1015D00020F00700D861086ACD690543DD61986A8B
:1015E000486AC3F828C098621EB3012E23D0B01EEB
:1015F000022822D9072E0CBF02200120DD6A05F047
:10160000E025DD628D6AC96AA7EB0E074543784382
:10161000033040EA0540D862186B20F4FF6020F0E8
:10162000070018631963A35843F00103A350BDE8F2
:10163000F0830420E2E70320E0E70220DEE7000079
:1016400038B50446002863D090F8A13003F0FF02BB
:101650001BB980F8A02002F05DFC022384F8A130C1
:101660002368A0689A6922F070429A616268996959
:101670000243E0680243206902430A439A619A6880
:10168000244960690A409A609A6842EA0042A06967
:1016900002439A60DA68E0690A40DA60DA6842EA8E
:1016A0000042206A0243DA601A69606A0A401A61DD
:1016B0001A6942EA0042A06A02431A615A6911405B
:1016C00059615A69E16A42EA0142216B0A435A614F
:1016D000D96A94F8360094F8355001F07F41D96208
:1016E000D96A94F834200A4342EA052242EA0042C9
:1016F000DA625A6B42F006025A639A6942F00102BA
:101700009A6100200123C4F8A40084F8A13038BDF8
:10171000012038BD00F800F0F8B590F8A030012B9A
:1017200006468E4694464FF002001DD034240D46E6
:1017300086F8A10004FB02640FCD0127383486F837
:10174000A0700FC40FCD0FC40FCD0FC42B68236042
:10175000304662467146FFF7ECFE336800205F6258
:1017600086F8A17086F8A000F8BD000090F8A030BF
:10177000012B4FF002030CD0074A80F8A130936987
:1017800043F480339361012380F8A130002380F873
:10179000A0301846704700BF0068014037B50023ED
:1017A0000193184B184C1A6C42F080521A641B6C4F
:1017B00003F080530193019B144B01221A60FEF742
:1017C000E9FE05466368DA030BD5114B0E4C012286
:1017D0001A60FEF7DFFE054663689B030AD500200A
:1017E00006E0FEF7D7FE401BB0F57A7FEAD903206A
:1017F00003B030BDFEF7CEFE401BB0F57A7FEBD9CB
:10180000F5E700BF003802400070004040000E4283
:1018100044000E422DE9F341044618B9012002B0FC
:10182000BDE8F0810368DD0710D42368980758D419
:1018300023681A0700F19A8023685B0700F1B880DB
:10184000A269002A40F019810020E8E7A64B9A68B7
:1018500002F00C02042A07D09A6802F00C02082A4F
:101860000AD15B68590207D59F4B1B689A03DCD5E8
:101870006368002BD9D1D1E763689B4DB3F5803FF6
:1018800011D12B6843F480332B60FEF783FE964D15
:1018900006462B689B03C8D4FEF77CFE801B642899
:1018A000F7D90320BBE7B3F5A02F04D12B6843F48D
:1018B00080232B60E5E72A6822F480322A602A68B8
:1018C00022F480222A60002BDFD1FEF763FE064659
:1018D0002B689F03A9D5FEF75DFE801B6428F7D90E
:1018E000DFE7814B9A6812F00C0F07D09A6802F07C
:1018F0000C02082A11D15B685E020ED47A4B1A687A
:10190000950702D5E268012A88D11A68216922F078
:10191000F80242EAC1021A608AE7E268734BB2B188
:1019200001221A60FEF736FE6F4D06462B689807B7
:1019300007D52B68226923F0F80343EAC2032B6022
:1019400076E7FEF727FE801B0228EFD9A9E71A6089
:10195000FEF720FE644D06462B6899077FF568AFB9
:10196000FEF718FE801B0228F6D99AE76269604BE1
:101970007AB101221A60FEF70DFE5B4D06466B6FD1
:101980009F073FF559AFFEF705FE801B0228F6D9E9
:1019900087E71A60FEF7FEFD534D06466B6F98070A
:1019A0007FF54AAFFEF7F6FD801B0228F6D978E7EF
:1019B0004D4B1A6C12F0805228D101921A6C42F0F1
:1019C00080521A641B6C03F080530193019B012623
:1019D000484D2B68D9051BD5A368434D012B27D152
:1019E0002B6F43F001032B67FEF7D4FD3E4D0746F6
:1019F00041F288382B6F9B0739D5002E3FF420AF7A
:101A0000394A136C23F08053136419E70026DFE78B
:101A10002B6843F480732B60FEF7BCFD07462B68F0
:101A2000DA05D9D4FEF7B6FDC01B0228F7D938E78E
:101A3000052B04D12B6F43F004032B67D0E72A6FEB
:101A400022F001022A672A6F22F004022A67002B83
:101A5000CAD1FEF79FFD41F2883807462B6F9807E1
:101A6000CBD5FEF797FDC01B4045F7D919E7FEF728
:101A700091FDC01B4045BDD913E71B4DAB6803F07A
:101A80000C03082B3FF4CAAE1B4E0023022A33601E
:101A900034D1FEF77FFD07462B6899011ED4226AD8
:101AA000E3691343626A43EA8213E26A43EA026328
:101AB000A26A0D4C5208013A43EA02436B600123CB
:101AC0003360FEF767FD054623689A013FF5BCAE1B
:101AD000FEF760FD401B0228F6D9E2E6FEF75AFD4C
:101AE000C01B0228D8D9DCE600380240000047427B
:101AF000800E47420070004060004742FEF74AFDFA
:101B000004462B689B017FF59FAEFEF743FD001B4B
:101B10000228F6D9C5E600BF134908B58B6803F063
:101B20000C03042B03D0082B03D0104808BD104829
:101B300008BD4A684B68496813F4800314BF0C4819
:101B40000A48C1F3881118BF002302F03F02A1FB2D
:101B50000001FEF74DFB044B5B68C3F30143013307
:101B60005B00B0FBF3F008BD003802400024F40035
:101B700000127A002DE9F0410D46044610B901200B
:101B8000BDE8F081444B1A6802F00F028A4228D364
:101B900021688F072DD4C80740D43F4B1A6802F044
:101BA0000F02954266D3226851076CD4130707D5FC
:101BB0003A4A2169936823F4604343EAC10393607E
:101BC000FFF7AAFF354B364A9B68C3F30313D35C78
:101BD000D840344B18600F20FEF792FC0020BDE87F
:101BE000F081CAB21A701B6803F00F039942C6D184
:101BF000CEE72A4B11F0040F1EBF9A6842F4E05260
:101C00009A600E0742BF9A6842F460429A609A68EE
:101C1000A06822F0F00202439A60BCE762681F4BA2
:101C2000012A1DD11B6813F4003FA8D01B4EB368D6
:101C300023F003031343B360FEF7ACFC41F2883892
:101C40000746B368626803F00C03B3EB820FA4D0BD
:101C5000FEF7A0FCC01B4045F3D90320BDE8F0818E
:101C6000911E01291B6802D813F0007FDDE713F0F5
:101C7000020FDAE7EAB21A701B6803F00F039D4205
:101C80007FF47DAF8FE70549E0688B6823F4E0536C
:101C900003438B608AE700BF003C024000380240EB
:101CA0005979000890000020044B054A9B68C3F353
:101CB0008223D35C034A1068D84070470038024042
:101CC00069790008900000200368F7B59A07044678
:101CD00040F08880236813F00C0F44D0804D814E73
:101CE00000232B60FEF756FC074633689B0000F18B
:101CF000BD8021684F0715D56369D6F88820206913
:101D00001B0602F0E04243EA80131343C6F8883012
:101D1000D6F88C30226A23F4F853013A43EA0223BE
:101D2000C6F88C300E0714D56E4AA369D2F8881015
:101D300020691B0701F0706143EA80130B43C2F86E
:101D40008830D2F88C30616A23F440330B43C2F8F8
:101D50008C3001232B60FEF71DFC624D06462B687C
:101D6000980040F18A8023689A0631D500230193B8
:101D70005C4B5D4D1A6C42F080521A641B6C03F090
:101D800080530193019B2B6843F480732B60FEF713
:101D900001FC06462B68D90576D5524D2B6F13F4FE
:101DA000407377D1A36A03F44072B2F5407F4D4A85
:101DB00040F09180916823F0704021F4F81120F4F4
:101DC000407001439160116FC3F30B030B43136722
:101DD000206810F010001FBF444B94F82C201A60AC
:101DE000002041E0424D3F4E00232B60FEF7D2FB26
:101DF000074633681B0131D42268D70706D5A3688C
:101E000061681B0743EA8113C6F88430900715D533
:101E1000344AE368D2F8841060681B0601F0E041A0
:101E200043EA80130B43C2F88430D2F88C10E36984
:101E300021F01F01013B0B43C2F88C3001232B60C2
:101E4000FEF7A8FB274D06462B6819013FF542AF68
:101E5000FEF7A0FB801B0228F6D904E0FEF79AFBF0
:101E6000C01B0228C5D9032003B0F0BDFEF792FBCA
:101E7000C01B02287FF639AFF5E7FEF78BFB801B0E
:101E800002287FF66CAFEEE7FEF784FB801B02288A
:101E900080D9E8E7A26A02F44072934282D02B6FA5
:101EA000144A0121116023F44073002111602B6753
:101EB0002B6FDA077FF576AFFEF76CFB41F28837C0
:101EC00006462B6F9B073FF56DAFFEF763FB801B4C
:101ED000B842F6D9C7E7916821F4F81172E700BF5C
:101EE000700047420038024000700040E011474255
:101EF00068004742400E474238B50D460446C8B117
:101F000090F82C3003F0FF021BB980F82D2001F06F
:101F100031FA022384F82C30211D206800F01AFBCE
:101F200062682068294600F054FB012384F82C30B5
:101F3000002038BD012038BD38B5044690F82C008B
:101F4000C0B202280D460DD0022384F82C30206840
:101F500000F087FB2B68022B0CBF0523012384F8BC
:101F60002C30002038BD10B5044690F82C00C0B2CB
:101F7000022809D0022384F82C30206800F096FB58
:101F8000012384F82C30002010BD70B504460D46A6
:101F900016462368986810F0800000D170BD6A1C56
:101FA000F8D0FEF7F7FA801B8542F2D823685A680A
:101FB00022F0E0025A606268B2F5827F0AD1A2681C
:101FC000B2F5004F02D0B2F5806F03D11A6822F04B
:101FD00040021A60A26AB2F5005F07D11A6822F4C3
:101FE00000521A601A6842F400521A60012384F801
:101FF0005130002384F85030032070BD4368B3F59E
:10200000827F10B504460BD18368B3F5004F02D030
:10201000B3F5806F04D12068036823F040030360A8
:102020002046FFF7B2FF20B1636D43F020036365E4
:10203000032010BD10B50446FFF7A7FF20B1636D64
:1020400043F020036365032010BD10B5044600284B
:1020500036D00023836290F8513003F0FF021BB9A1
:1020600080F8502002F068F92168A068A269022374
:1020700084F851300B6823F040030B60636803431E
:10208000E06803432069034360690343E069034355
:10209000206A0343A06A034302F4007003430B6009
:1020A000120C636A02F004021A434A60CB6923F4FB
:1020B0000063CB6100200123606584F8513010BDBE
:1020C000012010BD10B5044680B10268022380F8DB
:1020D0005130136823F04003136002F08BF90020A5
:1020E000606584F8500084F8510010BD012010BDD7
:1020F0002DE9F3411E4690F85030012B04460D4661
:10210000904600F09B80012380F85030FEF742FAA1
:10211000074694F85100C0B2012840F08D80002D90
:102120005DD0B8F1000F5AD0032384F8513000205D
:10213000A3686065A063A4F83680A087E087606428
:10214000206420682563B3F5004F08BF0368A4F836
:10215000348004BF43F48043036003685B065EBFC2
:10216000036843F040030360E368B3F5006F6368FE
:102170003ED113B1B8F1010F07D135F8023BC3606E
:102180002563E38E013B9BB2E386E38E9BB2A3B94A
:102190003A4631462046FFF74DFF002849D1A36853
:1021A00033B901932368DA6801929B680193019B1C
:1021B000606D003018BF012011E022689368980715
:1021C00005D5236B33F8021BD1602363D9E7FEF7F3
:1021D000E1F9C01BB042D8D3711CD6D00320012333
:1021E00084F85130002384F8503002B0BDE8F0810B
:1021F00013B1B8F1010F08D12B780373236B0133AE
:102200002363E38E013B9BB2E386E38E9BB2002BFC
:10221000BED023689A68920703D5226B12781A738E
:10222000ECE7FEF7B7F9C01B8642EED8731CECD082
:10223000D4E720236365B2E70220D0E70220D4E789
:102240002DE9F7431E4690F850300A9F012B0446B3
:102250000D46914600F0E280012380F85030FEF7F1
:1022600099F994F851306168DBB2012B80460AD0AD
:10227000B1F5827F40F0D080A068002840F0CC808B
:10228000042B40F0C980002D00F0C480B9F1000F8C
:1022900000F0C080002E00F0BD8094F85130C4F8EA
:1022A0003890042B1CBF052384F85130002363654C
:1022B000236463642368E687E6861A68A687500667
:1022C00058BF1A68256358BF42F04002A68658BF1F
:1022D0001A60E268B2F5006F58D109B1012E07D13A
:1022E00035F8022BDA60E38E2563013B9BB2E3866F
:1022F0000125E38E9BB2ABB9E38F9BB293B9424603
:1023000039462046FFF796FE002840F08180A368FA
:10231000002B32D123680190DA6801929B68019307
:10232000019B2AE02268936899070DD5E38E9BB242
:1023300053B14DB1236B33F8021BD1602363E38E9D
:10234000013B9BB2E38600259368DB070CD5E38F46
:102350009BB24BB1A36BD26823F8022BA363E38F2C
:10236000013B9BB2E3870125FEF714F9A0EB0800BF
:102370008742BED87E1CBCD00320012384F8513094
:10238000002384F8503003B0BDE8F08309B1012E7A
:1023900008D12A781A73236B01332363E38E013B40
:1023A0009BB2E3860125E38E9BB21BB9E38F9BB200
:1023B000002BA4D02268936898070ED5E38E9BB2B9
:1023C0005BB155B1236B1B781373236B013323630C
:1023D000E38E013B9BB2E386002522689368D90710
:1023E0000DD5E38F9BB253B1A36BD2681A70A36B68
:1023F0000133A363E38F013B9BB2E3870125FEF723
:10240000C9F8A0EB08008742CDD87B1CCBD0B3E73E
:10241000202363650120B0E70220AEE70220B2E787
:102420002DE9F3411D464368B3F5827F0446884693
:1024300017460CD1836853B9042380F851301346F2
:1024400000950A46FFF7FCFE02B0BDE8F08194F863
:102450005030012B79D0012384F85030FEF79AF8E0
:10246000064694F85100C0B201286CD1B8F1000FB3
:1024700057D0002F55D0042384F8513000236365D2
:102480002363E787A386E38623646364A368A7873F
:10249000B3F5004F2368C4F8388002BF1A6822F4ED
:1024A00080421A601A6857065EBF1A6842F04002FE
:1024B0001A60E368F3B1E38F9BB2FBB123689A68BB
:1024C000D20735D5DA68A36B23F8022BA363E38F19
:1024D000013B9BB2E387EEE723689A68D00718D5E3
:1024E000A26B1B7B1370A36B0133A363E38F013BD0
:1024F0009BB2E387E38F9BB2002BEDD13246294696
:102500002046FFF77BFDD8B9606D003018BF012071
:1025100007E0FEF73FF8801B8542EBD8691CE9D045
:102520000320012384F85130002384F850308BE7D6
:10253000FEF730F8801B8542BDD86B1CBBD0EFE79F
:1025400020236365E0E70220EBE702207CE790F8B8
:10255000510070470B684A68D1F810C0012B2DE973
:10256000F0430368D1F80890D1F80C804D698C696C
:10257000D1F81CE00F6A4E6A14D023F4FF4323F015
:102580007F031A4342EA090242EA080242EA0C03C4
:102590002B43234343EA0E033B43334303600020B2
:1025A000BDE8F083416821F4FF4121F07F0123F46D
:1025B000F8430A4343EA0E0342EA09023B4342EA74
:1025C00008021E4342EA0C032B4323430660436088
:1025D000E5E7012AF0B5D1F80CC08F680D694E69A6
:1025E00091E8084089691BD082680EF1FF3E02F035
:1025F0007042013B42EA0E121A437B1E42EA032359
:102600000CF1FF3C43EA0C33013D43EA0543013E34
:1026100043EA0653013943EA016383600020F0BDB9
:102620008468C2680EF1FF3E02F07042013B42EA4C
:102630000E121A4324F470047B1E42EA03220CF1AA
:10264000FF3C24F470446B1E44EA0C34013E42EA21
:102650000343013944EA065643EA01638660C360D6
:10266000DCE773B500230193154691E80C00134392
:10267000CA6843EA42238A68013A43EA4213019353
:10268000019B03610446FDF785FF0646A06910F033
:10269000200003D06B1CF9D015B9032002B070BD27
:1026A000FDF778FF801B8542F0D2F6E7436943EAE5
:1026B000410141610020704708B500F041FC002055
:1026C00008BD30B5B0F90840028A0B4690E82200F8
:1026D00085B0842C14BF0334002403A80190009417
:1026E000284600F05DFB01280CBF0398002005B0D0
:1026F00030BD08B5002808BF012000F06FFD0020A4
:1027000008BD08B500F0C8FD012803D0BDE80840A9
:1027100000F018B908BD00F1080343604FF0FF3224
:10272000C36003610023826003607047002303617C
:10273000704743684B609A688A609A6851609960F4
:10274000036808610133036070470A68531C30B5A1
:102750000AD103695A684A6091608B6059600368C6
:1027600008610133036030BD00F108035C6825682F
:10277000AA42EFD32346F9E74168826803698A6079
:10278000826851605968884208BF5A60002202611D
:102790001A68013A1A6018687047000082B0002376
:1027A00001930D4B1B68013308D04FF0500383F3A6
:1027B0001188BFF36F8FBFF34F8FFEE74FF05003C9
:1027C00083F31188BFF36F8FBFF34F8F019B002BF3
:1027D000FCD002B0704700BF080000200848006825
:1027E000006880F308884FF0000080F3148862B618
:1027F00061B6BFF34F8FBFF36F8F00DF00BF0000E4
:1028000008ED00E0DFF80C00016841F470010160A0
:102810007047000088ED00E04FF0807340F8043C02
:10282000074B40F80C3C21F001016FF0020340F827
:10283000081C40F8202C40F8243C4438704700BF66
:102840009D270008000000000000000000000000BC
:10285000074B19680868B0E8F04F80F30988BFF3A8
:102860006F8F4FF0000080F311887047AFF3008046
:10287000D03C00204FF0500383F31188BFF36F8FDB
:10288000BFF34F8F0A4A13680133012B13600DD138
:10289000084B1B6813F0FF0F08D04FF0500383F371
:1028A0001188BFF36F8FBFF34F8FFEE7704700BFF4
:1028B0000800002004ED00E0084A136843B94FF017
:1028C000500383F31188BFF36F8FBFF34F8FFEE781
:1028D000013B13600BB983F3118870470800002097
:1028E000EFF30980BFF36F8F154B1A681EF0100FBE
:1028F00008BF20ED108A20E9F04F10602DE9090093
:102900004FF0500080F31188BFF34F8FBFF36F8FEC
:1029100000F088FC4FF0000080F3118809BC1968B2
:102920000868B0E8F04F1EF0100F08BFB0EC108A36
:1029300080F30988BFF36F8F704700BFAFF300804B
:10294000D03C002008B54FF0500383F31188BFF34B
:102950006F8FBFF34F8F00F037FB18B1034B4FF071
:1029600080521A60002383F3118808BD04ED00E053
:10297000084A0949002313600B60084B4FF47A7131
:102980001B68B3FBF1F30649013B0B60072313609F
:10299000704700BF10E000E018E000E09000002069
:1029A00014E000E0394B3A4A13B51968914208D156
:1029B0004FF0500383F31188BFF36F8FBFF34F8F36
:1029C000FEE71A68334B9A4208D14FF0500383F365
:1029D0001188BFF36F8FBFF34F8FFEE72E4B1A782E
:1029E000D2B20192FF221A701B782C4ADBB28DF80A
:1029F00003309DF8033003F050031370284B072277
:102A00001A6000219DF80300000602F1FF340DD486
:102A100001B11A601A68032A11D04FF0500383F3F2
:102A20001188BFF36F8FBFF34F8FFEE79DF8032030
:102A30005200D2B28DF8032001212246E2E71202B1
:102A400002F4E0621A60019B134ADBB21370154B6B
:102A50001A6842F470021A601A6842F070421A60F2
:102A6000FFF786FF104B00241C60FFF7CBFE0F4AD8
:102A7000136843F040431360FFF7B0FE00F0D2FB51
:102A8000FFF78CFE204602B010BD00BF00ED00E055
:102A900071C20F4170C20F4100E400E0B00000209D
:102AA000B400002020ED00E00800002034EF00E03A
:102AB00010B50F4B1A68824218D35C681919884206
:102AC00001BF4168184609195960446801198A42D2
:102AD00007D1084909688A421FBF5168126809195D
:102AE00041609842026018BF186010BD1346E1E7CC
:102AF000C83C0020B80000202DE9F041044600F059
:102B00005BFA3E493E4D0B680BBB3E4A56071FBF62
:102B1000D01D20F0070002F570531B1A14BF0246A7
:102B20004FF470531344083B23F00703364E0B60F9
:102B300000207060326058601860981A1360334B40
:102B400050601860324B18604FF000432B602F68C4
:102B5000274216D1002C41D004F1080358071CBFAE
:102B600023F00703083363B1294A1668B34290463D
:102B700007D8254A15686868834204D809688D42D9
:102B800007D100242AE02C68002CF7D02A462546DD
:102B9000F1E7296814681160C21A102A0FD9E818E1
:102BA000410708D04FF0500383F31188BFF36F8FB4
:102BB000BFF34F8FFEE742606B60FFF779FF134969
:102BC0006B680868F61A1F4386424FF00003C8F886
:102BD000006038BF0E6008346F602B6000F086FA2A
:102BE000630708D04FF0500383F31188BFF36F8F52
:102BF000BFF34F8FFEE72046BDE8F081B80000200C
:102C0000BC3C0020BC000020C83C0020C43C00208C
:102C1000C03C002010B5044670B3184A50F8043C7C
:102C20001268134208D14FF0500383F31188BFF3A9
:102C30006F8FBFF34F8FFEE750F8081C41B14FF084
:102C4000500383F31188BFF36F8FBFF34F8FFEE7FD
:102C500023EA020340F8043C00F0AEF9084A54F8B5
:102C6000043C1168A4F108000B441360FFF720FF37
:102C7000BDE8104000F03ABA10BD00BFBC3C0020D7
:102C8000C03C0020064A13681968064B19B94FF07A
:102C9000FF321A6070471268D268D2685268F8E74B
:102CA000D43C0020AC3D0020F8B51B4B1B4E1D68EA
:102CB0000446306804300F46FFF75EFD334640B9E6
:102CC0003168174EC96A32680120884022EA000242
:102CD0003260621C07D137B1196812480431BDE86F
:102CE000F840FFF726BD2C441A68A542546007D966
:102CF0000D4A10681968BDE8F8400431FFF725BD9A
:102D00000A4A106819680431FFF71FFD084B1A685A
:102D1000944238BF1C60F8BDF43D0020D03C002038
:102D20007C3D0020CC3D0020D83C0020D43C00203D
:102D3000AC3D002080B5DFF86480144F144C154E74
:102D4000236863B9144B1B68012BF8D94FF08053EB
:102D5000C8F80030BFF34F8FBFF36F8FEEE7FFF778
:102D600089FDFB68DD68281DFFF706FD3368013B20
:102D700033602368013B2360FFF79EFD286BFFF75C
:102D800049FF2846FFF746FFDAE700BFE03D002095
:102D90006C3D0020683D0020DC3C002004ED00E09C
:102DA0002DE9F84F4FEA820A804650460F46994671
:102DB0000B9EFFF7A1FE0546002800F096805420E8
:102DC000FFF79AFE0446002800F08C80AAF1040A5E
:102DD000056355447B1E25F0070A00F134020F37C6
:102DE000597802F8011B13F8011F09B1BB42F7D152
:102DF0000A9D062D28BF06254FF0000B271DE56212
:102E00006564384684F843B0C4F848B0FFF78EFCD8
:102E1000C5F1070504F11800FFF788FCC4F84CB0B1
:102E20002461A561646284F850B04A464146504628
:102E3000FFF7F2FC206006B13460FFF71BFD324B58
:102E4000324E1A68DFF8F08001321A603568002DC2
:102E50004ED134601B68012B1DD108EB05001435E1
:102E6000FFF759FC8C2DF8D1DFF8D090284D48465B
:102E7000FFF751FC2846FFF74EFC2648FFF74BFCB6
:102E80002548FFF748FC2548FFF745FC244BC3F8CD
:102E90000090244B1D60244A2449136808680133BC
:102EA0001360E26A012505FA02F3034314200B6064
:102EB00000FB02803946FFF73CFCFFF7FDFC1C4B92
:102EC0001B6863B13368DA6AE36A9A4207D2194B26
:102ED0004FF080521A60BFF34F8FBFF36F8F2846B9
:102EE000BDE8F88F2846FFF795FE4FF0FF35F6E76F
:102EF0000F4B1B68002BCED13368DA6AE36A9A4223
:102F000098BF3460C7E700BF683D0020D03C002078
:102F1000943D0020B43D0020E03D0020CC3D002049
:102F2000D43C0020D83C0020783D00207C3D00208F
:102F3000C83D002004ED00E0DC3C0020803D002086
:102F400013B5174B019300240094234680221549A2
:102F50001548FFF725FF012814D14FF0500383F3E4
:102F60001188BFF36F8FBFF34F8F104B4FF0FF32BD
:102F70001A600F4B18600F4B1C6002B0BDE8104088
:102F8000FFF710BD013008D14FF0500383F31188D3
:102F9000BFF36F8FBFF34F8FFEE702B010BD00BFCE
:102FA000A83D002064520008352D0008AC3D0020EB
:102FB000C83D0020F43D0020024A1368013313602D
:102FC000704700BF743D00202DE9F84F3C4B1B6853
:102FD000002B53D13B4B1C6801341C60BCB93A4BED
:102FE0001A68126842B14FF0500383F31188BFF39F
:102FF0006F8FBFF34F8FFEE7344A1968106818606F
:103000001160334A136801331360FFF73BFE314D03
:10301000314F2B689C424FF0000B3ED3DFF8A88065
:10302000DFF8C490D8F80020126872BB4FF0FF326E
:103030002A6032E006F1040A5046FFF79DFBB16AB0
:1030400019B106F11800FFF797FBF06AD9F80030C4
:10305000012202FA00F11943204BC9F800104FF089
:10306000140E51460EFB0030FFF763FB3868F16A1F
:10307000C26A914228BF4FF0010BD3E7184A136888
:10308000013313604FF0000B11E0D8F80020D26834
:10309000D66871688C42CDD229603A680F4BD16AEC
:1030A00014224A439A58022A28BF4FF0010B0D4AB6
:1030B0001268002A18BF4FF0010B5846BDE8F88F80
:1030C000743D0020F43D0020D43C0020D83C00207A
:1030D000B03D0020AC3D0020D03C0020DC3C002076
:1030E000703D0020F83D00207C3D00202DE9F84394
:1030F000314C236843B94FF0500383F31188BFF379
:103100006F8FBFF34F8FFEE7FFF7B4FB2368013BE0
:10311000236024682CB10024FFF7CEFB2046BDE8D5
:10312000F883264B1B68002BF5D0DFF8A890244FBE
:10313000DFF8A480D9F80030E3B90CB1FFF7A2FDA5
:10314000204D2C6844B1204E0127FFF73DFF00B110
:103150003760013CF9D12C601B4B1B68002BDAD087
:103160001A4B4FF080521A60BFF34F8FBFF36F8F2F
:103170000124D1E7D9F80C30DC68261D04F11800D1
:10318000FFF7FAFA3046FFF7F7FAE26A39680125E5
:1031900005FA02F314200B4300FB028031463B602A
:1031A000FFF7C7FA0A4BE26A1B68DB6A9A4224BF40
:1031B000054B1D60BEE700BF743D0020683D002048
:1031C0007C3D0020703D0020F83D002004ED00E033
:1031D000D03C0020B43D0020DC3C002008B540B9C4
:1031E0000E4B4FF080521A60BFF34F8FBFF36F8FBB
:1031F00008BD0B4B196841B14FF0500383F31188A0
:10320000BFF36F8FBFF34F8FFEE7FFF7D5FEFFF7DA
:103210004BFDFFF76BFF0028E2D008BD04ED00E096
:10322000743D0020174B1A68174B10B512B10122DC
:103230001A6010BD1A60154B1B68B3FA83F3DBB23A
:10324000C3F11F03142212495A4388188C5844B9F9
:103250004FF0500383F31188BFF36F8FBFF34F8F8D
:10326000FEE744680832646844600A44944204BF3C
:1032700062684260142202FB03135B68DA68054B44
:10328000D6E700BF743D0020F83D00207C3D0020C3
:10329000DC3C0020D03C0020054B1B6833B1054BC3
:1032A0001B68002B0CBF02200020704701207047D4
:1032B000C83D0020743D002008B50848084B4FF475
:1032C000403E80E8084000238360C360FDF728FA91
:1032D00018B1BDE8084000F09DBF08BDB03E002019
:1032E00000B002400268094B9A4282B00BD1002321
:1032F0000193074B1A6B42F400021A631B6B03F431
:1033000000030193019B02B0704700BF00B0024070
:103310000038024000B5154815491022012302610A
:10332000402289B080E80A00426100234FF4C07255
:10333000042183608261C3610722436283624FF488
:103340004063C160036202920223039104926944C4
:1033500003220193059206930793FEF7CDFD08B172
:1033600000F058FF09B05DF804FB00BFF03E0020FC
:10337000400100A02DE9F0412C4B1C6886B0002CC8
:1033800051D14FF00108C3F80080294B00949A6B8B
:10339000284842EA08029A639B6B039403EA0803F5
:1033A0000093022703260C25009B02974FF63F034C
:1033B00001A9019304960595FDF7C4FA01A91E48D9
:1033C000CDF804800297039404960595FDF7BAFAA8
:1033D00048F2331301A91948019302970394049604
:1033E0000595FDF7AFFA4FF6837301A914480193D1
:1033F0000297039404960595FDF7A4FA4CF2037323
:1034000001A9104801930297039404960595FDF7CE
:1034100099FA602301A90C4801930297039404963A
:103420000595FDF78FFA06B0BDE8F081FC3D002060
:103430000038024000140240000802400018024018
:1034400000100240000C02400004024008B50120B8
:10345000FFF74FF9FBE7000008B50B4C0B4E0C4D86
:103460000120FFF746F9FDF795F82368C01A3128C7
:10347000F6D900232868336000F084FC00F0C4FC17
:10348000FDF788F82060EBE7243F0020003E002095
:103490003C3F002008B5094D094C0120FFF729F9F0
:1034A000286801F04FFC2B681A8802B101224FF402
:1034B00000512046FDF7CCFBEFE700BF503F002056
:1034C00000180240F0B5234C95B004F1100501201E
:1034D000FFF70FF90F2313931F4B204E1B78129306
:1034E00048222946684601F075FE94E80F0000F076
:1034F00093FE37683B781393194B48221B7812933D
:103500002946684601F066FE94E80F0000F0A6FE2A
:10351000387037687B781393124B48221B781293CC
:103520002946684601F056FE94E80F0000F096FE2A
:1035300078703668B37813930B4B48221B7812933C
:103540002946684601F046FE94E80F0000F086FE2A
:10355000B070BCE7004100201F0000203C3F00206D
:103560001C0000201D0000201E00002070B5204C13
:103570002048206094B000F041FE1F4B20681F4C93
:103580001968264600F03EFB0FCE6D460FC5336826
:103590002B6000216846FFF794F8194B04F11406DC
:1035A00018600FCE05AD0FC533682B60002105A84C
:1035B000FFF787F8134B04F1280618600FCE0AAD09
:1035C0000FC533682B6000210AA8FFF77AF80E4B6D
:1035D0003C3418600FCC0FAD0FC523682B60002161
:1035E0000FA8FFF76EF8094B186014B070BD00BF4C
:1035F000503F0020303F00203C3F00201452000884
:10360000483F00202C3F0020383F0020443F00204E
:103610002DE9F0478EB01422002109A801F0E5FD44
:103620000024724B01941A6BDFF8CC81704E714FFD
:10363000DFF8C891DFF8C8A142F010021A631A6BD4
:1036400002F010020192019A02941A6B42F00402F5
:103650001A631A6B02F004020292029A03941A6B24
:1036600042F020021A631A6B02F020020392039ABE
:1036700004941A6B42F080021A631A6B02F0800203
:103680000492049A05941A6B42F001021A631A6BB1
:1036900002F001020592059A06941A6B42F00202AA
:1036A0001A631A6B02F002020692069A07941A6BCA
:1036B00042F040021A631A6B02F040020792079A26
:1036C00008941A6B42F008021A631B6B03F008039C
:1036D0000893224640461621089BFDF7B9FA224678
:1036E00030468021FDF7B4FA224638464FF4405167
:1036F000FDF7AEFA224648464FF4C041FDF7A8FA5E
:103700000125162309A9404609930A950B940C94A8
:10371000FDF718F948F2070309A930460993CDF8D7
:1037200028A00B94FDF70EF9802309A930460993D0
:103730000A950B940C94FDF705F9202309A940463E
:10374000A8F580680993CDF828A00B94FDF7FAF846
:10375000042309A9404609930A940B94FDF7F2F853
:103760004FF4504309934FF0020A0C2309A9404635
:103770000D93CDF828A00B940C94FDF7E3F84FF4CB
:10378000005309A9404609930A940B94FDF7DAF80F
:103790004FF4006309A9384609930A940B94FDF786
:1037A000D1F84FF4405309A9384609930A950B9470
:1037B0000C94FDF7C7F84FF4C063099303230C93EF
:1037C00009A9072330460D93CDF828A00B94FDF7E7
:1037D000B9F84FF4C04309A9484609930A950B94D8
:1037E0000C94FDF7AFF80EB0BDE8F087003802404A
:1037F00000000240000C0240000802400018024095
:103800000000121008B51348134BDFF850E04FF4D6
:10381000804280E8084000238360C3600261436106
:103820008361C3610362FDF7E9FB08B100F0F2FCBC
:1038300000210848FDF73FFE08B100F0EBFC002135
:103840000448FDF757FE18B1BDE8084000F0E2BC9F
:1038500008BD00BF583F0020005C0040A08601006A
:103860002DE9F041044688B01422002103A801F09C
:10387000BCFC2268204B9A423AD1204C20480025BB
:103880000095236B43F004032363236B03F00403CD
:103890000093009B0195236B43F001032363236B8B
:1038A00003F001030193019B4FF012084FF40073E2
:1038B0000127042603A90393CDF8108005970796E6
:1038C000FDF740F84FF4807303A90E480393CDF839
:1038D0001080059706950796FDF734F80295236C3E
:1038E00043F400032364236C03F400030293029B5C
:1038F00008B0BDE8F08100BF005C00400038024025
:10390000000802400000024008B502680A4B9A42D3
:1039100010D10A4A0A48136C23F4000313644FF4CD
:103920000071FDF7FBF84FF480710648BDE80840D0
:10393000FDF7F4B808BD00BF005C0040003802404D
:103940000008024000000240F02070474FF4A070D1
:103950007047292000F0CCBE282000F0C9BE08B571
:1039600000F04EFECA2000F0C3FEC32000F0A4FE0B
:10397000082000F0A1FE502000F09EFECF2000F0B5
:10398000B7FE002000F098FEC12000F095FE302028
:1039900000F092FEED2000F0ABFE642000F08CFE03
:1039A000032000F089FE122000F086FE812000F046
:1039B00083FEE82000F09CFE852000F07DFE0020C4
:1039C00000F07AFE782000F077FECB2000F090FE29
:1039D000392000F071FE2C2000F06EFE002000F077
:1039E0006BFE342000F068FE022000F065FEF72038
:1039F00000F07EFE202000F05FFEEA2000F078FE5E
:103A0000002000F059FE002000F056FEB12000F02A
:103A10006FFE002000F050FE1B2000F04DFEB6208F
:103A200000F066FE0A2000F047FEA22000F044FEEF
:103A3000C02000F05DFE102000F03EFEC12000F02E
:103A400057FE102000F038FEC52000F051FE452042
:103A500000F032FE152000F02FFEC72000F048FED7
:103A6000902000F029FE362000F042FEC82000F031
:103A700023FEF22000F03CFE002000F01DFEB020EE
:103A800000F036FEC22000F017FEB62000F030FE37
:103A90000A2000F011FEA72000F00EFE272000F003
:103AA0000BFE042000F008FE2A2000F021FE00207A
:103AB00000F002FE002000F0FFFD002000F0FCFD01
:103AC000EF2000F0F9FD2B2000F012FE002000F0A6
:103AD000F3FD002000F0F0FD012000F0EDFD3F209F
:103AE00000F0EAFDF62000F003FE012000F0E4FD06
:103AF000002000F0E1FD062000F0DEFD2C2000F0AB
:103B0000F7FDC82000F046FE262000F0F1FD012060
:103B100000F0D2FDE02000F0EBFD0F2000F0CCFD26
:103B2000292000F0C9FD242000F0C6FD0C2000F083
:103B3000C3FD0E2000F0C0FD092000F0BDFD4E20A9
:103B400000F0BAFD782000F0B7FD3C2000F0B4FD95
:103B5000092000F0B1FD132000F0AEFD052000F0BB
:103B6000ABFD172000F0A8FD112000F0A5FD0020FE
:103B700000F0A2FDE12000F0BBFD002000F09CFD64
:103B8000162000F099FD1B2000F096FD042000F0A7
:103B900093FD112000F090FD072000F08DFD3120F5
:103BA00000F08AFD332000F087FD422000F084FD04
:103BB000052000F081FD0C2000F07EFD0A2000F0C1
:103BC0007BFD282000F078FD2F2000F075FD0F20F0
:103BD00000F072FD112000F08BFDC82000F0DAFD2E
:103BE000292000F085FD2C20BDE8084000F080BDB4
:103BF00008B500F005FD0321D32000F095FD80B24B
:103C000008BD0000024B1860024B1960704700BFEE
:103C1000AC3F0020B03F002070B5124D064628464C
:103C20000C4600F0CDFE00F075FEA4B2A0F1280213
:103C300021462C2392B2142000F004FF284600F005
:103C4000CBFE4FF0FF3000F0BBFE074800F0D0FE87
:103C5000324604F10E0101230020BDE8704000F05F
:103C60009DBF00BF800000FF0C00002038B5154B41
:103C70001C68012C25D1002520461D6000F09AFE0D
:103C8000114800F0B5FE4FF0FF3000F0A5FE4FF0F8
:103C9000FF3000F0B9FE0C4800F0AAFE0B4800F01F
:103CA0008FFE4FF0FF3000F097FE28462346142188
:103CB000074A00F073FF32210648BDE83840FFF79D
:103CC000ABBF38BD5800002014000020800000FF6A
:103CD000337900083E790008244B70B51C68012C2C
:103CE00043D1002520461D6000F064FE2048214E8F
:103CF00000F07EFE4FF0FF3000F06EFE4FF0FF3020
:103D000000F082FE1A4800F073FE1B4800F058FED7
:103D10004FF0FF3000F060FE2346184A2846142179
:103D200000F03CFFFA211648FFF776FF4FF07F4086
:103D300000F046FE4FF0FF3000F04EFE32682346A2
:103D4000284612783C2100F029FF32682346284695
:103D50001278642100F022FF326823462846127848
:103D60008C21BDE8704000F019BF70BD5C000020E0
:103D700014000020B03F0020800000FF46790008BA
:103D80005279000810B5064C22680AB9FFF76EFF99
:103D90002368012B03D1BDE81040FFF79DBF10BD84
:103DA000043E0020084B1B681A8862B19B88323B96
:103DB0009BB22C2B07D8054A01231360044A3220FA
:103DC0001360FCF7EDBB7047AC3F0020043E0020C1
:103DD0005C000020094B1B681A886AB19B88FA3B7B
:103DE0009BB22C2B08D8064B00221A60054B0122EF
:103DF00032201A60FCF7D4BB704700BFAC3F0020F4
:103E0000043E00205800002010B5064C22680AB974
:103E1000FFF7C8FF2368012B03D1BDE81040FFF76F
:103E2000D9BF10BD043E002010B59AB03422002145
:103E3000684601F0DAF9342200210DEB020001F0AE
:103E4000D4F93248324B002480E81800072343613C
:103E5000032383610E23C3610523036240F225130C
:103E600043624FF4A673836240F22B13C3624FF494
:103E7000A7738460C4600461036380F8344080F8F1
:103E8000354080F83640FDF7DBFB08B100F0C2F9A1
:103E90004FF4806307930022052369461B48009472
:103EA000019402940394049405940694089309944D
:103EB0000A940B948DF830408DF831408DF83240E3
:103EC000FDF72AFC08B100F0A5F94FF480621492C6
:103ED0000522002315920DA901220C480D930E9383
:103EE0000F931093119312931393169317931893A0
:103EF0008DF864308DF865308DF86630FDF70CFC78
:103F000008B100F087F91AB010BD00BFB43F00201F
:103F100000680140F0B504468DB01422002107A8C6
:103F200001F063F92268534B9A4240F0A0800024CC
:103F300003F5504300945A6C4F4842F080625A6433
:103F40005A6C02F080620092009A01941A6B42F05F
:103F500020021A631A6B02F020020192019A029465
:103F60001A6B42F001021A631A6B02F0010202920C
:103F7000029A03941A6B42F002021A631A6B02F05F
:103F800002020392039A04941A6B42F040021A63ED
:103F90001A6B02F040020492049A05941A6B42F0E4
:103FA00004021A631A6B02F004020592059A069441
:103FB0001A6B42F008021A631B6B03F008030693A6
:103FC00002250E26069B08954FF4806307A90793E8
:103FD0000B96FCF7B7FC41F6580307A9274807934F
:103FE0000927089509940A940B96FCF7ABFC032368
:103FF00007A923480793089509940A940B97FCF79F
:10400000A1FC4FF4706307A91D4807930895099414
:104010000A940B96FCF796FC4FF40C6307A9194819
:104020000793089509940A940B96FCF78BFC4FF4C0
:10403000986307A914480793089509940A940B9666
:10404000FCF780FC482307A91048079308950994BA
:104050000A940B96FCF776FC4FF4A05307A9094885
:104060000793089509940A940B97FCF76BFC0DB025
:10407000F0BD00BF00680140001402400000024093
:10408000000402400018024000080240000C0240F8
:1040900070B53024A0B02246002108A801F0A5F890
:1040A0001422002103A801F0A0F80021224614A840
:1040B00001F09BF80024224B01941A6C42F08052CC
:1040C0001A641B6C03F080530193019B1D4B0294F7
:1040D0001A6842F440421A601B680F9403F440438C
:1040E0000293029B01230B9310230C93B42302250C
:1040F0000826119308A80723139308950E95109688
:104100001295FDF787FBFDF749FB0F2303934FF44F
:10411000A053069305214FF4805303A807930495F9
:104120000594FDF727FDC023189304231A9314A8C0
:104130004FF4003314961D93FDF7C6FD20B070BDFB
:10414000003802400070004038B5084C084B094D5B
:104150002060084619602A6000F0C6FB286800F05D
:104160007BFD2068BDE8384000F0C4BBA0400020C3
:10417000A44000206040002008B500F0C1FB0A4BBD
:10418000186800F069FD40F26A5000F06BFD0748C6
:1041900000F02EFC01204FF0504100F0CBFB6420DA
:1041A000BDE80840FCF7FCB9604000201400002086
:1041B00008B5FCF7C9F9FFF76BFF0D4A0D490E482A
:1041C000FFF7C2FFFFF724FAFFF72EFEFFF7A2F872
:1041D000FFF772F8FFF716FB00F08CF800F068F8B4
:1041E000FFF7CAFFFFF7C2F9FEF766FAFEE700BF66
:1041F000F03E0020B43F0020B03E002010B54FF448
:104200007A710446084600F07BFD2046BDE8104068
:1042100000F098BD7047000084B010B502AC84E88F
:104220000F000D4C002220460221FCF711FD18A9B9
:104230003223012202A8FDF75BFF19A932230122D4
:1042400002A8FDF755FF204601220221FCF700FDE0
:10425000BDE8104004B070470008024084B038B593
:1042600004AC84E80F009DF86830104D63F07F03C4
:1042700004F8583F284600220221FCF7E9FC2146B9
:104280003223012204A8FDF733FF32231BA90122A8
:1042900004A8FEF7C5F8284601220221FCF7D8FC45
:1042A0009DF86C00BDE8384004B07047000802403B
:1042B00008B50E480E4B4FF4827E80E8084000237C
:1042C0008360C360036143614FF40072C3610362A2
:1042D000436283620A238261C362FDF7B6FE18B1AE
:1042E000BDE80840FFF796BF08BD00BF00410020B1
:1042F0000034014008B50E480E4B4FF4827E80E832
:10430000084000238360C360036143614FF400727F
:10431000C3610362436283620A238261C362FDF761
:1043200094FE18B1BDE80840FFF774BF08BD00BF98
:10433000A84000200050014010B514228AB0044665
:1043400000210DEB020000F050FF2368244A934245
:1043500023D1244B2448002101915A6C42F400528D
:104360005A645A6C02F400520192019A02911A6B3B
:1043700042F010021A631B6B03F010030293029BBE
:1043800064230593022306930323089305230993CB
:1043900005A9FCF7D7FA0AB010BD144A9342FAD126
:1043A000104B1348002103915A6C42F480125A6456
:1043B0005A6C02F480120392039A04911A6B42F031
:1043C00020021A631B6B03F020030493049B4FF439
:1043D00060730593022306930523099305A9D8E783
:1043E00000340140003802400010024000500140FB
:1043F0000014024003680D4A934209D102F582324B
:104400000B48536C23F4005353646421FCF786BBC0
:10441000084A934209D102F568424FF46071536C27
:10442000054823F480135364F0E7704700340140DB
:1044300000100240005001400014024010B5214C11
:1044400088B02046FEF783F8002838D11E4B236041
:104450001823E3610723E3624FF40073A3614FF471
:1044600082736360194B0190A06060612061A0625B
:10447000E060206260625A6C42F480125A645A6CA6
:1044800002F480120192019A02901A6B104842F0D5
:1044900020021A631B6B03F020030293029B4FF46C
:1044A000607303930223049305930123069303A9E6
:1044B00005230793FCF746FA2046FDF7C6FD08B032
:1044C00010BD00BF0C3E00200050014000380240EB
:1044D0000014024070B5334E88B03046FCF7E8FF58
:1044E000044600285BD1304A304B314D009086E8BD
:1044F0000C004FF48043B060F0607061B061F06117
:10450000306233612B6B43F004032B632B6B03F09E
:1045100004030093009B01902B6B43F001032B637A
:104520002B6B059003F001030193019B21484FF48D
:1045300080730393122304930223069303A9042395
:104540000793FCF7FFF94FF4007303A91A4803938C
:10455000FCF7F8F902942B6C43F400032B642B6CEA
:1045600003F400030293029B2B6A43F400032B62C3
:104570002B6A23F400032B6222460F214820FCF70C
:1045800035F84820FCF766F822460F214920FCF751
:104590002DF84920FCF75EF83046FCF72FFD08B0F7
:1045A00070BD00BF58410020005C0040A0860100A3
:1045B00000380240000002400008024008B50348ED
:1045C000FCF7C0FDBDE80840FFF784BF584100205C
:1045D00007B5094B02A91B6821F8020D0122074803
:1045E000FDF786FD20B10548FDF76CFDFFF726FFBE
:1045F00003B05DF804FB00BF640000200C3E002007
:10460000F0B5294B1D7889B0002D4AD1274C009573
:1046100001261E70236B264843F008032363236B97
:10462000049603F0080300930227009B05954FF4BE
:10463000005303A903930697FCF784F90195236BB4
:104640001B4843F008032363236B049603F008031D
:104650000193019B05954FF4805303A9039306979B
:10466000FCF770F90295236B124843F004032363AF
:10467000236B049603F004030424029303A9029B12
:10468000039405950697FCF75DF92A4621460948EB
:10469000FCF7DEFA324621460648FCF7D9FAFFF766
:1046A000CDFE09B0F0BD00BF083E0020003802403A
:1046B000000C02400008024038B50B4C05460122B0
:1046C0004FF400510948FCF7C3FA002204212046A8
:1046D000FCF7BEFA2846FFF77BFF204601220421A3
:1046E000BDE83840FCF7B4BA00080240000C0240B4
:1046F00038B50B4C054600224FF400510948FCF731
:10470000A7FA002204212046FCF7A2FA2846FFF768
:104710005FFF204601220421BDE83840FCF798BA2B
:1047200000080240000C024037B505460C46002246
:1047300004211448FCF78CFA00224FF4005112486F
:10474000FCF786FA2846FFF743FF104B10481B681A
:10475000224601A9FDF764FE20B10D48FDF7B2FC29
:10476000FFF76CFE01224FF400510748019CFCF753
:104770006FFA012204210348FCF76AFA204603B0CD
:1047800030BD00BF00080240000C02406400002061
:104790000C3E0020FBF704BFFFF79CBE10B586B0AF
:1047A0000024104B00941A6B0F4842F001021A6368
:1047B0001B6B049403F001030093009B4FF4004330
:1047C00001930123039301A9084B0293FCF7BAF864
:1047D00022460F212820FBF709FF2820FBF73AFF8C
:1047E00006B010BD00380240000002400000211059
:1047F00010B586B006AC094B04F8012D1B68029376
:1048000001230A460193014600940548FCF7B4FCD5
:1048100008B1FFF7D3FE06B010BD00BF6000002056
:10482000584100207FB506AA002302F8013D094B3C
:104830001B68029301238DE80C000A4601460648D6
:10484000FCF72AFD08B1FFF7B9FE9DF8170007B085
:104850005DF804FB60000020584100201FB5084CA3
:1048600024688DE81C000A46012301460548FCF730
:1048700013FD10B1FFF7A2FE012004B010BD00BF70
:104880006000002058410020FBF78ABE2DE9F74365
:10489000144C0B9D8146206898464FF4403343608A
:1048A000002383600A9BC3600E461746FBF738FF60
:1048B000A0B949462068FBF7FBFF78B9CDF8008026
:1048C0003B46324629462068FBF756FF30B9206840
:1048D0000A2103B0BDE8F043FBF768BF03B0BDE8B1
:1048E000F08300BF683E0020014B1860704700BF96
:1048F000AC410020014B1860704700BF683E0020AB
:10490000024B034A13601B68184700BF20000020B9
:10491000B041002008B5024B1B689B6A984708BD50
:10492000B041002008B5024B1B68DB6A984708BD00
:10493000B041002070B58EB000240E4605460194AB
:10494000FFF7E8FF03940290FFF7ECFFFF230693C5
:104950004FF4C063089307230993059407948DF8D7
:1049600034408DF835408DF8364004900A96FFF7B4
:10497000D1FF0B90FFF7D6FF0B4C0C902A4601A9F4
:104980002068FCF7C9FE094B0C2068431A184FF049
:10499000FF315160064991604FF07F421A50206804
:1049A000FCF7E4FE0EB070BDAC4100206C3E002070
:1049B00014000020014B1860704700BF643E0020C7
:1049C000034B1A680C235343024AD050704700BF70
:1049D000643E00206C3E0020034B044A1B680C21FF
:1049E00001FB032358607047643E00206C3E0020AA
:1049F000034B044A1B680C2101FB0323986070479A
:104A0000643E00206C3E00200C4BF7B51C680C4B3C
:104A10001A68342303FB04230746DD6DFFF77AFF92
:104A20000646FFF77FFF00230093019703463246B7
:104A300029462046FFF72AFF03B0F0BD643E002060
:104A4000AC4100202DE9F3479946124E124B0C461B
:104A50001B6831681746342202FB01310546D1F844
:104A60005C80FFF757FF8246FFF754FF36680B4B19
:104A70000AFB04540C257543C01B5B59019300903D
:104A80004B463A4608EB84013046FFF7FFFE02B082
:104A9000BDE8F087643E0020AC4100206C3E002061
:104AA000F8B5094B16461A68084B1B680C463421AA
:104AB00001FB03230746DD6DFFF72CFF00FB0470AD
:104AC00045F82060F8BD00BFAC410020643E0020E6
:104AD0002DE9F04F2F4B85B01B6802912E490190B4
:104AE0000C2000FB0313A2F120049968B1F804A084
:104AF000B1F806B00A680AF10706F6100BFB04F4D9
:104B0000CAEBC60006FB04240AF1FF3252FA80F316
:104B10004FF000080393029BD84503EB08091FFAE6
:104B200089F902D305B0BDE8F08F012E09D0022E1D
:104B30000FD0657822782D0245EA0245A278154308
:104B400000E025780027BA4508D808F10108344468
:104B5000E1E72278657845EA0225F3E7039B012225
:104B6000D91B8A400B492A4209684FF00C020AD02F
:104B7000019B4A43D819084B9A58494680B2FFF71F
:104B80008FFF0137DFE7044B02FB0132019B5268C4
:104B9000D819F2E7643E00206C3E00202DE9F74F63
:104BA0009A4604460F4616461346A3EB060913F829
:104BB000012B002AF9D1FFF7ADFE254B254D1A68D0
:104BC0000C2101FB0252BAF1010F926898469288BB
:104BD000B0FBF2F021D0BAF1020F25D0B3464FF06E
:104BE0000C0A9BF80020003218BF01220192FFF747
:104BF00091FED8F800300AFB0353ABEB06099B6823
:104C00009B881FFA89F903FB190080B2984201D3EF
:104C1000019A72B903B0BDE8F08FA0EB09005043D0
:104C200004EB500084B2D9E7A0EB090010FB02406E
:104C3000F8E720461BF8012B3946FFF749FFD8F863
:104C400000300AFB03539B689888204484B2C8E76D
:104C5000643E00206C3E0020014B1860704700BF8E
:104C6000943E00202DE9F347234C244D01264FF0BC
:104C700000080827214682464FF6FF722868CDF8C3
:104C8000048084E8C000A660C4F80C80FDF754F9E5
:104C90003046FBF785FC022321464FF6FF72286859
:104CA000A66084E888004FF00409C4F80C80FDF782
:104CB00043F9032321464FF6FF722868C4F8089091
:104CC00084E88800C4F80C80FDF736F94FF40C73C3
:104CD0000193019B2868E3604FF6FF722146C4F8F8
:104CE00000906760A660FDF727F951462868FDF738
:104CF0003AF902B0BDE8F087843E0020943E0020DF
:104D000038B50C4B0C4C18800C4B82201980636812
:104D1000984740F6110398420AD1094D23682C6048
:104D2000822098472B688220DB689847002038BD96
:104D3000012038BD9C3E0020680000209E3E0020DF
:104D4000983E002073B52A4D2B6804461B698220CB
:104D5000984780B22080002848D02B680DF10602C9
:104D60005B6901A982209847BDF80630A3F5B473AA
:104D70009BB20B22B3FBF2F333B11E4A128893426B
:104D800084BF02F1FF339BB2BDF8042040F6B83176
:104D90008A4295BFC2F57162C2F56D620E32083269
:104DA000ADF80420BDF804000F22B0FBF2F030B1E2
:104DB000114A1288904284BF02F1FF3080B20F4E38
:104DC0000F4D3268296890428CBF821A121A8B42AA
:104DD0008CBF591AC91A92B289B20A44052AC4BFB3
:104DE00030602B60336863802B68A38002B070BD95
:104DF000983E00209E3E00209C3E0020A03E0020C9
:104E0000A43E002007B50F4B00220092596C41F4DC
:104E100080415964596C01F48041009100990192DC
:104E2000196C41F0805119641B6C03F0805301939D
:104E30000F216FF00100019BFBF7D8FB03B05DF879
:104E400004FB00BF003802407047FEE7FEE7FEE7C4
:104E5000FEE7704708B5FBF791FBBDE80840FDF79A
:104E600050BC10B5C4B2022203212046FFF7C0FC9B
:104E70000A20FFF709FD204600220321FFF7B8FCB6
:104E80000220BDE81040FFF7FFBC38B50446E4B28D
:104E9000FFF782FC00212046FFF7C4FC01210546F4
:104EA0002046FFF7BFFC40EA052080B238BD10B5B0
:104EB000C4B240212046FFF7B5FC030607D54C21BC
:104EC0002046FFF7AFFC003018BF012010BD204680
:104ED00001224B21FFF78CFC204600224B21FFF7DB
:104EE00087FC002010BD73B50423C4B20E461546DE
:104EF000D7210DEB03022046FFF7B0FC019B1BBA44
:104F00001A0DC3F30B23328020462B8001224B2144
:104F1000FFF76EFC00224B212046FFF769FC02B030
:104F200070BD000010B50B4A13789842044610D0AB
:104F30005178884203D110BD59B9012301E0002BFB
:104F4000FAD1D454FFF728FC2046BDE81040FFF703
:104F500088BF10BDA83E002010B5C4B2092120466C
:104F6000FFF760FC40F00102D2B220460921BDE803
:104F70001040FFF73DBC10B5C4B209212046FFF731
:104F800051FC092100F0FE022046BDE81040FFF769
:104F90002FBC38B5C5B20C4628460A21FFF742FCA3
:104FA00040EA0402D2B228460A21BDE83840FFF7A1
:104FB0001FBC10B50446FFF7F1FB20461F21FFF789
:104FC000E8FF2046BDE81040FFF7C6BF38B5C5B2C0
:104FD0000C4628460A21FFF725FC20EA0402D2B23B
:104FE00028460A21BDE83840FFF702BC10B5044648
:104FF000FFF7C1FF20461F21BDE81040FFF7E6BFC5
:1050000010B5C0B20C460B21FFF70CFC204010BDC0
:105010001F21FFF7F5BF0A46C0B20B21FFF7E8BB1F
:105020001F21FFF7F8BF38B5C5B20C462846172137
:10503000FFF7F8FB20EA0402D2B228461721BDE8A8
:105040003840FFF7D5BB70B5C4B2064604212046F0
:10505000FFF7E8FB042100F0FB0205462046FFF7BE
:10506000C7FB3046F021FFF7DEFF05F0F8022046CF
:105070000421FFF7BDFB492220212046FFF7B8FBA2
:105080000220FFF701FC204601222121FFF7B0FB9F
:1050900020469A224121FFF7ABFB204601224A21FC
:1050A000FFF7A6FB204601224B21FFF7A1FB20467C
:1050B00000224B21FFF79CFB204601225621FFF7DF
:1050C00097FB204601225821FFF792FB2046012240
:1050D0004021FFF78DFB2046FF220B21FFF788FBC5
:1050E0000220BDE87040FFF7CFBB00000F49D1F8A8
:1050F000883043F47003C1F888300D4B1A680020E3
:1051000042F001021A6098601A6822F0847222F458
:1051100080321A60074A5A601A6822F480221A60A4
:10512000D8604FF000638B60704700BF00ED00E077
:105130000038024010300024DFF834D0002103E0B2
:105140000C4B5B58435004310B480C4B42189A42AD
:10515000F6D30B4A02E0002342F8043B094B9A4283
:10516000F9D3FFF7C3FF00F011F8FFF721F87047FC
:105170000000032084790008000000209400002033
:1051800094000020B4410020FEE7000070B50D4EF1
:105190000D4CA41BA4100025A54209D10B4E0C4CAC
:1051A00000F02CF8A41BA4100025A54205D170BD69
:1051B00056F8253098470135EEE756F825309847E0
:1051C0000135F2E77C7900087C7900087C790008D9
:1051D0008079000810B5431E0A44914200D110BDE9
:1051E00011F8014B03F8014FF7E7024403469342DD
:1051F00000D1704703F8011BF9E70000F8B500BFC4
:10520000F8BC08BC9E467047F8B500BFF8BC08BCA7
:045210009E467047FF
:10521400267900085934000800000000000000004E
:10522400800000001A79000895340008000000008E
:1052340000000000800000000D790008C53400085B
:105244000000000000000000800000000179000858
:105254004D34000800000000000000008000000041
:1052640049444C450000000000000000000000001C
:10527400000000000000000000000000000000002A
:10528400000000000000000C000C000C000C000CDE
:10529400000C000C000C0000000C000000000000DA
:1052A4000000000000000000001DC01DC0088008B0
:1052B40080088000000000000000000000000000E2
:1052C400000000000000000D800D800D800D803F67
:1052D400C01B003FC01B001B001B001B0000000084
:1052E400000000000004001F803180318038001E5F
:1052F400000F000380318031803F0004000400006F
:105304000000000000000018002400240018C0075A
:10531400801E003180024002400180000000000035
:105324000000000000000000000F00180018001822
:10533400000C001D80370033001D800000000000B9
:105344000000000000000000000700070002000247
:105354000002000000000000000000000000000047
:10536400000000000000000300030006000E000C13
:10537400000C000C000C000E0006000300030000EB
:1053840000000000000000180018000C00060006D1
:105394000006000600060006000C001C00180000B1
:1053A40000000000000000060006003FC03FC00FE0
:1053B400001F8019800000000000000000000000B1
:1053C40000000000000000000000000400040004CD
:1053D400003F8004000400040000000000000000FE
:1053E40000000000000000000000000000000000B9
:1053F40000000000000000060004000C0008000883
:105404000000000000000000000000000000000098
:10541400003F8000000000000000000000000000C9
:105424000000000000000000000000000000000078
:10543400000000000000000C000C00000000000050
:10544400000000000000C000C001800180030003D0
:105454000006000C000C001800180030003000009A
:10546400000000000000000E001B0031803180317C
:10547400803180318031801B000E0000000000006C
:105484000000000000000006003E000600060006C2
:105494000006000600060006003FC00000000000F1
:1054A400000000000000000F0019803180318003EB
:1054B4000006000C00180030003F800000000000CF
:1054C400000000000000003F006180018003001F15
:1054D4000003800180018061803F00000000000023
:1054E40000000000000000070007000F000B001B75
:1054F40000130033003F8003000F80000000000011
:10550400000000000000001F801800180018001F91
:105514000011800180018021801F00000000000034
:105524000000000000000007801C00180030003755
:105534000039803180318019800F000000000000A4
:10554400000000000000007F004300030006000686
:1055540000060006000C000C000C00000000000017
:10556400000000000000001F003180318031801FE6
:105574000031803180318031801F00000000000044
:10558400000000000000001E003300318031803331
:10559400801D800180030007003C00000000000023
:1055A400000000000000000000000000000C000CDF
:1055B400000000000000000C000C000000000000CF
:1055C40000000000000000000000000000030003D1
:1055D40000000000000000060004000800080000AD
:1055E40000000000000000000000C00300040018D8
:1055F40000600018000400030000C0000000000068
:105604000000000000000000000000000000007F17
:10561400C000007FC0000000000000000000000087
:1056240000000000000000000060001800040003F7
:105634000000C00300040018006000000000000027
:105644000000000000000000001F003180318001D4
:105654008007000C000C0000000C0000000000009B
:10566400000000000000000E0011002100210027AE
:1056740000290029002700200011000E000000006E
:105684000000000000000000003F000F00090019A6
:105694008019801F8030C030C079E0000000000015
:1056A4000000000000000000007F003180318031E4
:1056B400803F003180318031807F00000000000095
:1056C4000000000000000000001F4030C060406087
:1056D4000060006000604030801F00000000000097
:1056E4000000000000000000007F00318030C03066
:1056F400C030C030C030C031807F000000000000E6
:105704000000000000000000007F80308030803204
:10571400003E003200308030807F800000000000B6
:105724000000000000000000007FC0304030403224
:10573400003E003200300030007C00000000000019
:105744000000000000000000001E803180608060C6
:1057540000600067C0618031801F0000000000000D
:105764000000000000000000007BC0318031803167
:10577400803F803180318031807BC0000000000098
:105784000000000000000000003FC0060006000604
:105794000006000600060006003FC00000000000EE
:1057A4000000000000000000001FC003000300030D
:1057B4000003006300630063003E0000000000007B
:1057C4000000000000000000007BC0318033003680
:1057D400003C003E003300318079C000000000002E
:1057E4000000000000000000007E001800180018EF
:1057F4000018001840184018407FC0000000000046
:10580400000000000000000000E0E060C071C07B08
:10581400C06AC06EC064C060C0FBE000000000004D
:1058240000000000000000000073C0318039803D9A
:10583400803580378033803180798000000000001B
:105844000000000000000000001F00318060C06004
:10585400C060C060C060C031801F00000000000054
:105864000000000000000000007F00318031803122
:105874008031803F00300030007E000000000000D6
:105884000000000000000000001F00318060C060C4
:10589400C060C060C060C031801F000CC01F8000A9
:1058A4000000000000000000007F003180318031E2
:1058B400803E003300318031807CE0000000000035
:1058C4000000000000000000001F8031803180389B
:1058D400001F000380318031803F00000000000081
:1058E4000000000000000000007F804C804C804CD1
:1058F400800C000C000C000C003F000000000000B5
:105904000000000000000000007BC03180318031C5
:105914008031803180318031801F00000000000020
:105924000000000000000000007BC0318031801BBB
:10593400001B001B000A000E000E00000000000007
:10594400000000000000000000FBE060C064C06EC6
:10595400C06EC02A803B803B803180000000000084
:105964000000000000000000007BC031801B000E1E
:10597400000E000E001B0031807BC0000000000000
:1059840000000000000000000079E030C019800F22
:105994000006000600060006001F8000000000004C
:1059A4000000000000000000003F8021802300066A
:1059B4000004000C00188030803F800000000000CC
:1059C4000000000000000007800600060006000634
:1059D4000006000600060006000600060007800018
:1059E400000000000030003000180018000C000C0B
:1059F400000600030003000180018000C000C00015
:105A0400000000000000001E00060006000600065C
:105A1400000600060006000600060006001E000040
:105A2400000000000004000A000A00110020802089
:105A340080000000000000000000000000000000E2
:105A44000000000000000000000000000000000052
:105A54000000000000000000000000000000000042
:105A6400000000FFE0080004000200000000000045
:105A74000000000000000000000000000000000022
:105A8400000000000000000000000000001F0001F2
:105A94008001801F80318033801DC0000000000021
:105AA40000000000000000700030003000370039B2
:105AB4008030C030C030C039807700000000000062
:105AC400000000000000000000000000001E803103
